:020000040800F2
:10000000102000209D0100085F390008312E0008F3
:100010005D39000835080008F544000800000000BC
:10002000000000000000000000000000E53D0008A6
:10003000730800080000000061390008E73D00086F
:10004000B7010008B7010008B7010008B7010008B0
:10005000B7010008B7010008B7010008B7010008A0
:10006000B7010008B7010008B70100083908000807
:10007000B7010008B7010008B7010008B701000880
:10008000B7010008B7010008B7010008B701000870
:10009000B7010008B7010008B7010008B701000860
:1000A000B7010008B7010008B7010008B701000850
:1000B000B7010008B7010008B7010008B701000840
:1000C000B7010008B7010008B7010008B701000830
:1000D000B701000881440008B5440008E94400085D
:1000E000B7010008B7010008B7010008B701000810
:1000F000B7010008B7010008B7010008B701000800
:10010000B7010008B7010008B7010008B7010008EF
:10011000B7010008B7010008BD3E0008B70100089C
:10012000B7010008B7010008B7010008B7010008CF
:10013000B7010008B7010008B7010008B7010008BF
:10014000B7010008B7010008B7010008B7010008AF
:10015000B7010008B701000835360008B7010008EC
:10016000B7010008B7010008B7010008B70100088F
:10017000B7010008B7010008B7010008000000003F
:10018000B7010008B7010008DFF80CD000F0B4FA9E
:1001900000480047CD500008102000200648804746
:1001A00006480047FEE7FEE7FEE7FEE7FEE7FEE75C
:1001B000FEE7FEE7FEE7FEE7793E0008890100085A
:1001C0002DE9F05F0546002092469B46884606468C
:1001D000814640241BE0284641464746224600F01F
:1001E000CFF853465A46C01A914110D311461846CB
:1001F000224600F0B6F82D1A67EB01084F4622465A
:100200000120002100F0ADF817EB00094E41201E3F
:10021000A4F10104DFDC484631462A46434600F09B
:1002200000B830BCBDE8C09FD2B201E000F8012B9D
:10023000491EFBD270470022F6E710B513460A4666
:1002400004461946FFF7F0FF204610BD2DE9FE4F8A
:1002500081EA030404F0004421F0004100944FF0CF
:10026000000B23F0004350EA01045ED052EA03047D
:100270005BD0C3F30A54C1F30A552C44A4F2F334FF
:100280000194A0FB0254C1F3130141F48011C3F3A4
:10029000130343F4801301FB024400FB034E840A62
:1002A000970A44EA815447EA8357A4FB07680295FA
:1002B0008D0A05FB07854FEA932C04FB0C54270598
:1002C000029D4FEA065847EA1637B5EB08056EEB74
:1002D000070C870E920E47EA811742EA8312A7FBAA
:1002E0000201B6EB0B0164EB00042B0D43EA0C3367
:1002F0005E1844EB1C50DA465146E7FB0201C5F399
:1003000013044FEA0B3343EA14534FEA0432019CBF
:1003100043EA0603A4F10C040294009CCDE900B466
:1003200000F04DF803B000F003B800200146F9E7F3
:1003300030BCBDE8C08F30B50B46014600202022FE
:10034000012409E021FA02F59D4205D303FA02F5E2
:10035000491B04FA02F52844151EA2F10102F1DC42
:1003600030BD202A04DB203A00FA02F10020704759
:100370009140C2F1200320FA03F3194390407047E3
:10038000202A04DB203A21FA02F00021704721FAEA
:1003900002F3D040C2F12002914008431946704751
:1003A00010B5141E73F1000408DA401C41F100017D
:1003B00092185B411A4301D120F0010010BD2DE9D4
:1003C000F04D92469B4611B1B1FA81F202E0B0FACB
:1003D00080F220329046FFF7C4FF04460F4640EA01
:1003E0000A0041EA0B0153465A46084313D011460E
:1003F00053EA010019D0C8F140025046FFF7C0FF90
:1004000005460E46504659464246FFF7AAFF0843A6
:1004100005D0012004E020463946BDE8F08D0020DB
:10042000054346EAE0762C4337430A986305E40A1D
:10043000A0EB08000022FD0A44EA47540A3002D526
:1004400000200146E9E7010510196941DDE9084589
:1004500000196941BDE8F04DA2E72DE9FE4F804645
:1004600081EA0300C00F0C46009021F0004123F008
:100470000045B8EB0200A94105D24046214690460E
:100480001C460B46024623F00040104347D0270D80
:10049000C7F30A00C3F30A510290401A01904028A2
:1004A0006BDAC3F3130040F4801B0098924620B12E
:1004B0000023D2EB030A63EB0B0B01985946C0F102
:1004C00040025046FFF74DFF06460D46504659463E
:1004D000019A00F023F910EB08006141002487EA3B
:1004E000115284EAE7731A4340D0009A62B3019A2A
:1004F000012A4FEA075215DC001B61EB02014FF0A5
:10050000004202EA0752CDE90042001C41F5801189
:1005100032462B46FFF753FF03B000F045B8404684
:100520002146F9E7001B61EB0201001C41F5801335
:1005300000185B412018A2F5001747EB030140EAC1
:10054000D570B6196D4111E06D084FEA360645EADF
:10055000C0754FEA0752001B61EB0201001C41F518
:10056000801149084FEA30000019514132462B46AC
:1005700003B000F01CB8FFF713BF00980122400041
:100580000023D0EB020263EBE073009821464FEAB0
:10059000E074B8EB000061EB0401E9E783F000438D
:1005A0005BE781F0004158E730BCBDE8C08F30BC4C
:1005B000BDE8C04FFFF7DFBF2DE9F04D81EA03042E
:1005C00004F0004B21F0004514464FF0000A23F0E0
:1005D000004150EA050220D054EA01021DD0C5F3C3
:1005E0000A570246C5F31303C1F31300C1F30A56B9
:1005F00040F4801543F48013A7EB0608101BD64681
:1006000008F2FD3873EB050002D308F1010801E0A0
:1006100092185B41B8F1000F03DA00200146BDE8F3
:10062000F08D00204FF48011064684460EE0171B23
:1006300073EB050705D3121B63EB050306434CEA76
:10064000010C49084FEA300092185B4150EA01075B
:10065000EDD152EA030012D082EA040083EA0501D8
:10066000084305D0101BAB4106D20122002306E04F
:1006700000224FF0004302E06FF0010253101AEB2A
:1006800006004CEB085110EB0A0041EB0B01BDE8F2
:10069000F04DFFF785BEC1F30A52C1F3130140F2DA
:1006A000FF3341F480119A4202DA0020014670477C
:1006B00040F233439A42A2F2334202DC5242FFF745
:1006C0005FBEFFF74EBE000030B5041E71F100049E
:1006D00004DB4FF00044404264EB0101141E73F14F
:1006E000000405DB1C464FF00043524263EB040359
:1006F000994208BF904230BD064C074D06E0E068C5
:1007000040F0010394E8070098471034AC42F6D358
:10071000FFF73EFD3CDD00085CDD0008202A06DB1B
:10072000CB17203A41FA02F043EAE07306E041FABF
:1007300002F3D040C2F120029140084319467047AD
:1007400010B5846A616D11F0500F06D0616DC90655
:1007500025D5204600F009FB10BD606D40F4007007
:10076000606520680168090716D502F043FF78B17B
:100770002068C068800400280ADB606D20F4807067
:100780006065606DC00403D4606D40F00100606579
:10079000204600F0E8FA10BDC0688007EBE7E16C86
:1007A000496BBDE81040084710B5806A416D41F0C3
:1007B00040014165816D41F00401816500F0D5FA89
:1007C00010BD10B5806A00F0CFFA10BD70B50446B8
:1007D0000068816811F0010F28D18168144A114224
:1007E00015D18168D5432940491C816000F0CAFEBB
:1007F000064616E0816811F0010F03D18168294097
:10080000491C816000F0BEFE801B022809D9606D82
:1008100040F010006065A06D40F00100A06501206F
:1008200070BD20680168C943C907E3D1002070BDCD
:100830003F000080FEE70000014800F064BC0000BB
:100840009800002030B590F8444004F01C050124C5
:10085000AC40056C6C60046863608368102B0368AF
:1008600003D099600068C26030BD9A600068C160C2
:1008700030BD7047704700002DE9F047044690F8FE
:1008800050009AB00D464FF00008012813D0012007
:1008900084F85000304E20684FF00009B0420ED16D
:1008A0002E4F0097384602F0A1FE8246206802F0E3
:1008B0009DFE60B10EE002201AB0BDE8F087616DC8
:1008C00041F02001616584F850900120F4E7BAF10D
:1008D000000F09D0606D40F0200060654FF0010806
:1008E00084F850904046E7E71D4829681D4A0029D2
:1008F000816840F61F7321F460411BD094F830C02A
:1009000041EA4C31D5F804C041EA0C018160B1687C
:10091000BE6801F0010106F001069268314302F061
:1009200001021143DCD1AA682968114382689A4305
:1009300011430EE08160B168BD6801F0010105F06E
:1009400001059268294302F001021143C8D1816870
:1009500099438160C4E70000000004500001045086
:1009600000030450000204502DE9F84F002704460C
:10097000009790F85000DFF8B8930D46B84601286C
:1009800011D0012684F85060206802F02BFE60B17F
:10099000606D40F0200060655FF0010784F85080D2
:1009A000384600F0DDB90220FBE768680C23052813
:1009B00012D8022807D0032807D0042807D005281A
:1009C00007D0062007E06B6006E0122003E0182045
:1009D00001E04FF480706860D5E90021206803EAE7
:1009E00091131844036B01F01F014FF01F0C0CFA18
:1009F00001FCC2F3846223EA0C038A4013430363BD
:100A0000206802F0EFFD8246206802F0E7FD5AEA16
:100A100000001DD1AA682968206802F0F3FD206853
:100A20006969C268C2F3C102520091402A69042A6E
:100A30000FD000EB82002B68026EDFF8F8C203F0E3
:100A4000F84302EA0C020B431A4342F000410166EC
:100A500072E0002102F0BCFD400320684FF000016D
:100A600072D002F0B5FD90FAA0F0B0FA80F12868DB
:100A700042036ED090FAA0F0B0FA80F0814204D127
:100A800000221146206802F0CCFD0121206802F00E
:100A90009FFD400320684FF001015DD002F098FDFA
:100AA00090FAA0F0B0FA80F12868420359D090FA89
:100AB000A0F0B0FA80F0814204D100220121206828
:100AC00002F0AFFD0221206802F082FD40032068A1
:100AD0004FF0020148D002F07BFD90FAA0F0B0FA8E
:100AE00080F12868420344D090FAA0F0B0FA80F078
:100AF000814204D100220221206802F092FD0321EC
:100B0000206802F065FD400320684FF0030133D0F8
:100B100002F05EFD90FAA0F0B0FA80F1286842037E
:100B20002FD090FAA0F0B0FA80F0814204D10022D8
:100B30000321206802F075FD2068816811F0010F23
:100B400022D0ACE000E004E002F042FDC0F384619A
:100B50008DE7C0F3846091E702F03AFDC0F3846151
:100B6000A2E7C0F38460A6E702F032FDC0F384611F
:100B7000B7E7C0F38460BBE702F02AFDC0F38461ED
:100B8000CCE7C0F38460D0E72A7B296850F8B03FF7
:100B9000C1F3120C23EA0C0302F0180C664A22FA85
:100BA0000CF20A4013430360E968494577D128688D
:100BB00041031CD090FAA0F1B1FA81F1491C01F077
:100BC0001F0109294FEA403132D8002912D000BF55
:100BD00090FAA0F1B1FA81F101F1010101F01F01D8
:100BE00006FA01F609D100BFC0F3846109E0C0F341
:100BF0008461E3E7C0F38461EEE790FAA0F1B1FA13
:100C000081F101F1010101F01F0146EA816102D188
:100C1000C0F3846003E090FAA0F0B0FA80F000F135
:100C2000010000F01F0000EB400041EA005132E0FB
:100C300000290ED090FAA0F1B1FA81F101F1010181
:100C400001F01F0106FA01F606D100BFC0F384616E
:100C500006E0C0F38461F1E790FAA0F1B1FA81F106
:100C600001F1010101F01F0146EA816102D1C0F3E7
:100C7000846003E090FAA0F0B0FA80F000F1010087
:100C800000F01F002D4A00EB400002EB005041EA4B
:100C9000000141F00071AA68206802F0B3FC284806
:100CA0002A6802423FF47AAE26488168264E274BD6
:100CB000274D01F0E071B2421CD10E021AD4226815
:100CC0009A4202D0AA427FF469AE826841F40001E0
:100CD00022F0E0720A4382601E481F490068B0FBA0
:100CE000F1F000EB4000800000E0401E0090002882
:100CF000FBD153E6194EB24209D1CE0107D4226886
:100D00009A4201D0AA42F4D141F080710AE06FF01A
:100D10000045EA42EDD14A02EBD422689A42E8D17A
:100D200041F48001826822F0E0720A43826035E675
:100D300000007F4000F0FF03FFFF0700000020FEDF
:100D40000000088000030450000052C70000045057
:100D5000000204500C000020400D0300000084CB72
:100D600018BCBDE8E08F704770477047F8B54FF08A
:100D7000000504002E46009502D0606D10B107E01A
:100D80000120F8BD204600F0D5F8A66584F8506033
:100D900020688168C1F3407119B181685B4A1140D4
:100DA000816020688168C1F3007179B98168584A0F
:100DB000114041F080518160564857490068B0FBAE
:100DC000F1F000E0401E00900028FBD1206881680F
:100DD000C1F3007141B9616D41F010016165A16D10
:100DE00041F00101A165012502F0FCFB616DC9061E
:100DF00000D430B1606D40F01000606501252846D8
:100E0000F8BD606D20F4807040F0020060652068DD
:100E1000806810F0010F15D140488068404900F00B
:100E20000100896801F0010108433E49896801F029
:100E30000101084306D13C4960688A6822F47C12AB
:100E400002438A60E168606B627E0843A16841EA00
:100E50004231084394F8201040EA0140012904D1AE
:100E6000A18C324A02EB41410843A16A29B101F445
:100E70007071E26A014342EA01002268D1682C4B9A
:100E800019400143D160206802F0ACFB064620689F
:100E900002F0A4FB304315D1207E94F83010226874
:100EA000800340EA4101D06844F2020398430843BA
:100EB000D06094F8380001280CD02068016921F036
:100EC00001010161206901282068016B21F00F01F7
:100ED00011D013E0D4E90F010843D4E911121143F2
:100EE000084321680A6940F2FC739A43104340F0BA
:100EF00001000861E6E7E269521E11430163606D7B
:100F000020F0020040F00100606578E7C0FFFF5F5D
:100F1000C0FFFF7F0C000020400D030000000450C4
:100F20000001045000020450000304500000FEFFC2
:100F300007C0F0FF70B586B0064614216846FFF77B
:100F40007AF91C493068884231D11B49C86C40F499
:100F50000050C864C86C00F400500590C86C40F0A4
:100F60000400C864C86C002500F0040005900C2043
:100F700000900B20CDE901056946104800F0CAF940
:100F8000104C0F48C4E900058020A560C4E9035057
:100F9000800060618000A0612020C4E90705204630
:100FA00000F00EF908B1FFF765FCF464A66206B024
:100FB00070BD00000000045000100240000800480E
:100FC00008000240980000202DE9F0410446334813
:100FD00017468846806800F01F05206802F002FB73
:100FE000002859D194F85000012855D0012084F8E8
:100FF0005000002625B1052D02D0092D00D003E0B8
:101000002046FFF7E3FB18B184F85060BDE8F0819B
:10101000606D40F60161884340F48070606520494E
:101020002068884201D11F4900E00146814200D07A
:101030001DB9606D20F480106065606DC00404D53A
:10104000A06D20F00600A06500E0A665E16C1648E2
:10105000C862E16C15480863E16C15484863216873
:101060001C20086084F850602068416841F010013D
:1010700041602068C16841F00101C16021683B46C0
:1010800042464031E06C00F0FBF821688A68094B69
:101090001A40121D8A60B9E70220B7E70003045026
:1010A000000104500000045041070008C307000875
:1010B000A9070008C0FFFF7F10B590F82510002495
:1010C000022903D00421C16301241AE001680A68DF
:1010D00022F00E020A6001680A6822F001020A602A
:1010E00090F84410036C01F01C02012101FA02F295
:1010F0005A6080F82510002180F82410816B01B11E
:101100008847204610BDF0B4016C0C6801680D687A
:1011100090F8442002F01C06042202FA06F323424F
:1011200011D06B070FD50B689B0603D40B6823F017
:1011300004030B6090F8441001F01C018A40016C1C
:101140004A60016B1DE0022303FA06F727424FF0C5
:10115000000C4FF0010218D0AF0716D50C68A4069A
:1011600005D40C6824F00A040C6080F8252090F85F
:10117000441001F01C018B40016C4B6080F824C0CE
:10118000C16A00291AD0F0BC08470823B3402342A3
:1011900014D02B0712D50B6823F00E030B6090F8C8
:1011A0004410036C01F01C0102FA01F15960C263A2
:1011B00080F8252080F824C0416BE2E7F0BC70473E
:1011C00070B568B12B4C036814212B4AA34209D295
:1011D0002A4C1C44B4FBF1F18900C0E910210BE05A
:1011E000012070BD234C64421C44B4FBF1F1890022
:1011F0004164204908390164022180F825101C68E7
:1012000047F6F0718C43D0E902152943D0E9045622
:101210003543294385692943C5692943056A29431B
:10122000214319608168B1F5804F19D0036C0F21FB
:10123000934202D152F8A83F02E00E4AA03213684E
:1012400090F8444004F01C04A1408B43136090F8D4
:101250004430416803F01C0399401368194311603E
:101260000021C163012280F8252080F8241008465F
:1012700070BD00000804024000000240F8FFFDBFFE
:1012800070B5044690F82400002501280CD00120F8
:1012900084F8240094F825600020012E06D084F8FC
:1012A00024000225284670BD022070BD022684F865
:1012B0002560E0632068066826F001060660204687
:1012C000FFF7C0FA206B00282068016802D041F0C7
:1012D0000E0106E021F0040101602068016841F080
:1012E0000A0101602068016841F001010160D9E74D
:1012F00070B5044600F046F90546601C02D004486B
:101300000078044400F03EF9401BA042FAD370BDBF
:10131000000000202DE9F04FDFF83492002309F19E
:10132000040A012403250AF1040B87B00F270BF1EF
:10133000040E04E104FA03F632407CD0D1F804C074
:10134000BCF1010F08D0BCF1020F05D0BCF1110FA8
:1013500002D0BCF1120F29D1D0F808C0CDF800C0DE
:101360004FEA430C05FA0CF8CDF80CC0DDF800C0CC
:101370002CEA080CCDF800C0D1F80C80DDF80CC0C8
:1013800008FA0CF8DDF800C048EA0C08C0F808803C
:10139000D0F8048091F804C028EA0608CCF3001CB9
:1013A0000CFA03FC4CEA080CC0F804C0D1F8048025
:1013B0006FEA080C5FEA8C7C09D1D0F82CC02CEACB
:1013C000060CC8F3C0069E4046EA0C06C662D0F87A
:1013D0000CC04FEA430805FA08F62CEA060CCDF8D3
:1013E000148002968E6806FA08F646EA0C06C66075
:1013F0004E68022E01D0122E15D1DE0800EB8606B3
:101400000396366A4FEA437C4FEADC6807FA08FC29
:1014100026EA0C06D1F810C00CFA08FC4CEA060CBF
:10142000039EC6F820C00668DDF808C026EA0C0650
:1014300091F804C000E081E0DDF814800CF0030CAA
:101440000CFA08FC4CEA060CC0F800C04E68F60026
:1014500074D5404ED6F860C04CF0010CC6F860C0A0
:10146000366E23F0030C06F0010600963A4E6644F1
:101470000296D6F808C09E074FEA167807FA08F6D3
:101480002CEA060CB0F1904F04D0344EB04203D198
:1014900001261BE0002619E0314EB04201D10226A0
:1014A00014E0304EB04201D103260FE02E4EB04280
:1014B00001D104260AE02D4EB04201D1052605E0F7
:1014C0002B4EB04201D1062600E0072606FA08F6A8
:1014D00046EA0C06DDF808C0CCF80860D9F80060D0
:1014E000CC46D1F8048096435FEAC83800D516434D
:1014F000CCF80060DAF80060D446D1F80480964356
:101500005FEA883800D51643CCF80060DBF800604D
:10151000DC46D1F8048096435FEAC82800D516431C
:10152000CCF80060DEF80060F446D1F80480964301
:101530005FEA882800D51643CCF800605B1C0A6877
:1015400032FA03F67FF4F6AE07B000F013B80000ED
:101550000004014000100240000001400004004867
:1015600000080048000C0048001000480014004823
:101570000018004830BCBDE8C08F0AB181617047D7
:1015800081627047014880687047000000000020B9
:101590000248816802781144816070470000002091
:1015A00010B50024032000F071F8002000F008F8C6
:1015B00008B1012401E000F025F8204610BD00002C
:1015C00070B50E4E05460024307898B14FF47A710C
:1015D000B1FBF0F00A490968B1FBF0F000F08DFFB3
:1015E00040B9102D06D200222946501E00F02EF8D8
:1015F000756000E00124204670BD0000000000205E
:101600000C000020094808B5016E41F00101016697
:10161000016E01F001010091816D41F08051816501
:10162000806D00F08050009008BD00000010024066
:10163000002809DB00F01F020121914040098000D1
:1016400000F1E020C0F8001170470000F0B40E4B2C
:101650001B680C46C3F30223C3F10705042D00D910
:101660000425191D072901D2002300E0DB1E0126F5
:1016700006FA05F1491E214099409E40761E16400B
:101680003143F0BC02F05CBF0CED00E0064900F015
:10169000070208684FF6FF03184040EA0220034A99
:1016A00010430860704700000CED00E00000FA05F0
:1016B0001649B0F5007F0868C0F3412009D0022820
:1016C00005D0086820F4C06040F480600860002005
:1016D00070470128FBD0086820F4C06040F4007017
:1016E00008600B483222006850430A4AB0FBF2F00F
:1016F000401C00E0401E4A69520501D50028F9D17E
:1017000048694005E3D503207047000000700040A1
:101710000C00002040420F000248006800F4C06046
:1017200070470000007000402DE9F84F0446002784
:101730000088E54D3E46010504F1200B1DD5606E85
:1017400078B1B0F5800F11D0B0F5000F04D0B0F52E
:10175000400F22D001270FE0E86840F48030E860B5
:101760001BE00021201D02F0FDF803E00021584697
:1017700002F08EF9070010D03E462088C00426D51E
:10178000A06EC0B1B0F1807F1AD0B0F1007F0DD053
:10179000B0F1407F19D0012718E0D5F88800616EBC
:1017A00020F440000843C5F88800E6E7E86840F404
:1017B0008030E86009E00021201D02F0D3F803E04A
:1017C0000021584602F064F90746F7B13E4620680A
:1017D00080033AD5A86D4FF00008C00009D4A86D69
:1017E00040F08050A865A86D4FF0010800F08050CF
:1017F0000090DFF8D8A2DAF8001041F48071CAF83E
:101800000010FFF7BFFE814610E0D5F88800A16EFA
:1018100020F040700843C5F88800D8E7FFF7B2FE13
:10182000A0EB0900022801D9032705E0DAF800003F
:10183000C005F3D5002F7CD04FEA0706B8F1000FA2
:1018400003D0A86D20F08050A8652078C00707D08D
:10185000D5F88800A16B20F003000843C5F8880084
:101860002078800707D5D5F88800E16B20F00C00C0
:101870000843C5F888002078400707D5D5F88800C8
:10188000216C20F030000843C5F88800207800075C
:1018900007D5D5F88800616C20F0C0000843C5F872
:1018A00088002078C00607D5D5F88800A16C20F400
:1018B00040700843C5F888002078800607D5D5F821
:1018C0008800E16C20F440600843C5F88800208857
:1018D000800507D5D5F88800E16D20F44020084345
:1018E000C5F888002088400507D5D5F88800216E06
:1018F00020F440100843C5F888002078400607D53A
:10190000D5F88800216D20F440500843C5F88800C0
:101910002078000607D5D5F88800616D20F4404096
:101920000843C5F888002088C00509D5D5F8880087
:1019300000E01CE0A16D20F440300843C5F88800A9
:1019400020884FF0006780044FF080684FD5D5F8AD
:101950008800E16E20F040600843C5F88800E06E22
:10196000B8423CD1E86840F48010E8603FE0D5F828
:10197000900010F4407015D0D4F88410814211D03A
:10198000D5F89000D5F8901020F4407041F48031E3
:10199000C5F89010D5F8901021F48031C5F890105A
:1019A000C5F89000C00710D0FFF7ECFD074641F2E4
:1019B000883906E0FFF7E6FDC11B494501D903263A
:1019C0003CE7D5F890008007F4D5D5F89000D4F81E
:1019D000841020F440700843C5F890002EE740457D
:1019E00005D10121201D01F0BDFF00B10646206890
:1019F000000317D5D5F88800216F20F04060084318
:101A0000C5F88800206FB84204D1E86840F480101F
:101A1000E86007E0404505D10121201D01F0A2FF4B
:101A200000B106462068400317D5D5F88800616FDD
:101A300020F040600843C5F88800606FB84204D1C8
:101A4000E86840F48010E86007E0404505D10121D6
:101A5000201D01F087FF00B10646208840041AD5FA
:101A6000D5F88800A16F20F040500843C5F88800E1
:101A7000A06FB0F1805F03D0B0F1005F05D00AE045
:101A80000221201D01F06EFF03E00221584601F003
:101A9000FFFF00B106462088000407D5D5F888006E
:101AA000E16F20F080400843C5F888002068C0033B
:101AB00007D555F8880FD4F8801020F0004008436F
:101AC0002860304600F004B800100240007000406A
:101AD00018BCBDE8E08F00002DE9F0470F46050077
:101AE00058D0404E306800F00700B84209D2306844
:101AF00020F0070038433060306800F00700B8423B
:101B000048D12878384CC0072CD06868032811D0F9
:101B1000022812D0216898B1490500293ADAA16853
:101B200021F003010143A160FFF72CFD804641F243
:101B3000883910E021688901EFE721688903ECE723
:101B40008907EAE7FFF71EFDA0EB0801494502D926
:101B50000320BDE8F087A068696800F00C00B0EBD6
:101B6000810FEFD12878800705D5A068A96820F0FB
:101B7000F0000843A060306800F00700B8420BD9BD
:101B8000306820F0070038433060306800F007000C
:101B9000B84201D00120DCE72878400705D5A068CD
:101BA000E96820F4E0600843A0602878000706D5C3
:101BB000A068296920F4605040EAC100A06000F0EC
:101BC0003FF8A168094AC1F30311515C01F01F01FC
:101BD000C8400749086007480068BDE8F047FFF7BC
:101BE000EFBC00000020024000100240C05200087C
:101BF0000C000020040000200548064900688968A0
:101C0000054AC1F30221515C01F01F01C840704731
:101C10000C0000200010024000530008054806494F
:101C200000688968054AC1F3C221515C01F01F01B7
:101C3000C84070470C00002000100240005300080C
:101C400070B52549002318468A68CC6812F00C024A
:101C500004F00306214C4FEA640509D00C2A05D094
:101C6000042A32D0082A00D1284670BD012E10D196
:101C70000B681B0704D4D1F89430C3F3032302E0AC
:101C80000B68C3F30313164E56F82330DAB10C2A4F
:101C9000EBD1C86800F00300022818D0032818D040
:101CA0001846CA68CB68C2F30212C3F30623434343
:101CB000521CB3FBF2F2C868C0F34160401C400004
:101CC000B2FBF0F070BD184670BD204670BD2046D6
:101CD000E7E72846E5E70000001002400024F40092
:101CE000D05200082DE9F84304006FD0FE4DA868DB
:101CF00000F00C06E86800F003072078C00664D501
:101D000076B10C2E01D1012F0AD0A06900282868D5
:101D10007AD040F001002860FFF734FC80465DE097
:101D20002868800702D5A0690028DED0216A2868CB
:101D3000000703D5286800F0F00004E0D5F894000F
:101D4000F02202EA1010814216D9084601F024FF61
:101D500000283BD1286840F0080028602868216AE4
:101D600020F0F000084328606868E16920F47F40B3
:101D700040EA0120686016E0286840F0080028600A
:101D80002868216A20F0F000084328606868E1694B
:101D900020F47F4040EA0120686026B9206A01F003
:101DA000FBFE0028D5D1FFF74BFFA968CF4AC1F34E
:101DB0000311515C01F01F01C840CD490860CD48B6
:101DC0000068FFF7FDFB00287ED12EE0CAE000BFCF
:101DD000FFF7D8FBA0EB0800022876D82868800718
:101DE000F6D5286840F0080028602868216A20F0AD
:101DF000F000084328606868E16920F47F4040EA09
:101E00000120686011E0FFE720F001002860FFF783
:101E1000B9FB804606E000BFFFF7B4FBA0EB08006B
:101E20000228DAD828688007F6D42078C00740D086
:101E3000082E18D00C2E01D1032F14D06068B0F5F5
:101E4000803F17D0B0F5A02F286817D020F480303D
:101E50002860286820F4802028606068E0B1FFF7DF
:101E600091FB804614E02868800322D56068002832
:101E700078D01EE0286840F48030EDE740F4802000
:101E80002860F7E7FFF77EFBA0EB08006428A4D8E2
:101E900028688003F6D50CE0FFF774FB804605E068
:101EA000FFF770FBA0EB0800642896D82868800331
:101EB000F6D4207880073BD5042E11D00C2E01D10A
:101EC000022F0DD0E06801E092E1F1E000282868DF
:101ED0001ED040F480702860FFF754FB07460CE0EA
:101EE000286840050CD5E0680028C1D008E000BF94
:101EF000FFF748FBC01B022893D828684005F7D598
:101F00006868217C20F0F85040EA016068600FE0CA
:101F100020F480702860FFF735FB074605E000BF1E
:101F2000FFF730FBC01B0228B1D828684005F7D462
:101F30002078000729D560690028D5F8940012D0D0
:101F400040F00100C5F89400FFF71CFB074604E0D1
:101F5000FFF718FBC01B022899D8D5F8940080071A
:101F6000F6D512E000E120F00100C5F89400FFF77B
:101F700009FB074605E000BFFFF704FBC01B022872
:101F800085D8D5F894008007F6D42078400766D528
:101F9000A86D0027C00008D4A86D40F08050A86547
:101FA000A86D012700F08050009053480168C905D2
:101FB00012D40168814641F480710160FFF7E2FAB2
:101FC000804605E0FFF7DEFAA0EB080002286FD894
:101FD000D9F80000C005F5D5A068012816D005285D
:101FE000D5F8900017D020F00100C5F89000D5F882
:101FF000900020F0040000BFC5F89000A06841F2F6
:102000008839C0B1FFF7BEFA80460FE0D5F89000DE
:1020100040F00100F0E740F00400C5F89000F5E75B
:10202000FFF7B0FAA0EB0801494541D8D5F8900078
:102030008007F5D50EE0FFF7A5FA804606E000BF61
:10204000FFF7A0FAA0EB0801494531D8D5F8900078
:102050008007F5D41FB1A86D20F08050A865A06A54
:1020600038B302280AD00C2E7ED0286820F0807069
:102070002860286810F0205F77D0AAE0E868E26A5C
:1020800000F0030191422BD1216B00F07002090195
:102090001039914224D1626B00F4FE41B1EB022F62
:1020A0001ED1A26B00F40031072A03D0012202E006
:1020B0009DE089E00022914212D1A18F00F4C0027C
:1020C00049084905A1F50011914209D194F8401041
:1020D00000F0C06049084906A1F1007181425CD05E
:1020E0000C2E41D0286809E000100240C0520008C0
:1020F0000C000020040000200070004040017ED44D
:102100002868C0007BD4286820F080702860FFF722
:1021100039FA064605E000BFFFF734FA801B0228B3
:1021200065D828688001F7D4D4E90B016FF00F025D
:1021300002EB01110843A18F5204490802EB4151FF
:10214000626B41EA0221084394F840104FF07E424E
:10215000490802EB41610843A16B090940EA41408B
:10216000E968284A114001E049E02EE00843E860B0
:10217000286840F080702860E86840F08070E8606F
:10218000FFF700FA044604E0FFF7FCF9001B022801
:102190002DD828688001F7D52FE0286880012CD43D
:1021A000286840F080702860E86840F08070E8603F
:1021B000FFF7E8F9044604E0FFF7E4F9001B022802
:1021C00015D828688001F7D517E0E86820F00300EB
:1021D000E860E8680C490840E860FFF7D3F9044676
:1021E00008E000BFFFF7CEF9001B022802D9032048
:1021F000BDE8F88328688001F4D40020F8E70120C6
:10220000F6E700008C809DF9FFFFEEFE70B504003C
:1022100009D0606A002540B125616561A56294F826
:102220005D0040B10CE0012070BD6068B0F5827FB8
:10223000F4D0E561F2E784F85C50204600F056F8EF
:10224000022084F85D002068016821F040010160EF
:10225000E1684FF4E062914201D9002001E04FF4BF
:102260008050B1F5706F02D0914200D0A562A18874
:10227000228901F4827102F404421143227C02F0AB
:1022800002021143227D02F001021143228B02F46B
:1022900000721143227F02F03802114394F820208B
:1022A00002F080021143228D02F400521143226891
:1022B0001160A169042202EA114194F8242000F47B
:1022C000805002F01002114394F8342002F008020A
:1022D0001143A28902F470621143014320684160F6
:1022E0002566012084F85D00002070BD10B586B021
:1022F000044614216846FDF79EFF13492068884272
:102300001FD11248816D41F400418165816D01F456
:1023100000410591C16C41F00401C164C06C694683
:1023200000F0040005904FF4E0500090022001906E
:102330000020029003200390062004900448FEF73A
:10234000E9FF06B010BD0000003C00400010024054
:10235000000800482DE9F84F044690F85C0000277B
:102360001D461646894601280DD04FF0010B84F812
:102370005CB0FFF707F9804694F85D00BA46012883
:1023800004D00227A4E0022000F0A8B8B9F1000FA1
:1023900074D0002E72D0032084F85D00C4F860A0D1
:1023A000C4F83890A687E687C4F840A0A4F844A0F3
:1023B000A4F846A0C4F850A0C4F84CA0A068B0F59A
:1023C000004F09D12068016821F0400101602068B8
:1023D000016841F48041016020680168490603D426
:1023E000016841F040010160E068B0F5E06F6068AD
:1023F00023D908B1012E1CD1A06B21680088C860C8
:1024000006E020688168890709D5A16B0988C16049
:10241000A06B801CA063E08F401EE08709E0FFF7FF
:10242000B1F8A0EB0800A84202D3681C01D046E036
:10243000ADB3E08F0028E4D136E008B1012E30D1F1
:10244000E08F0128A06B03D921680088C8600FE0E5
:1024500021680078087314E0E08722E02068816832
:10246000890714D5E18F0129A16B08D90988C160BA
:10247000A06B801CA063E08F801EEDE727E0097849
:102480000173A06B401CA063E08F401EE4E7FFF7E0
:1024900079F8A0EB0800A84202D3681C01D00EE036
:1024A0006DB1E08F0028D9D142462946204601F07F
:1024B000B1FB08B120202066A06810B105E0032719
:1024C00006E02068C16880680090206E00B1012796
:1024D00084F85DB084F85CA0384655E718BCBDE8C8
:1024E000E08F4FF0E0210428086903D020F00400B9
:1024F0000861704740F00400FAE710B5401EB0F1E3
:10250000807F01D3012010BD4FF0E02460610F21D6
:10251000601702F015F80020A0610720206100205C
:1025200010BD704770477047F0B590F83C20012A05
:1025300039D0012480F83C40022280F83D20026816
:1025400053689568194E1A4FB24201D0BA4204D16D
:1025500023F4700C4B6843EA0C0323F0700C0B68F7
:1025600043EA0C0353600268B24210D0B2F1804FCC
:102570000DD0104B9A420AD00F4B9A4207D00F4B06
:102580009A4204D0BA4202D00D4B9A4204D18968D3
:1025900025F080031943916080F83D40002180F8C8
:1025A0003C100846F0BD0220F0BD0000002C0140A8
:1025B000003401400004004000080040000C0040CE
:1025C0000040014010B5040003D094F83D0010B164
:1025D00007E0012010BD002084F83C00204600F0F8
:1025E00023F8022084F83D00211D206801F06CFCD6
:1025F000012084F8480084F83E0084F83F0084F805
:10260000400084F8410084F8420084F8430084F8D4
:10261000440084F8450084F8460084F8470084F8B4
:102620003D00002010BD000008B500680B4988423D
:1026300012D10B48816D41F010018165806D00223F
:1026400000F01000009011463620FEF7FFFFBDE8B5
:1026500008403620FEF7ECBF08BD00000010004027
:102660000010024090F83D10012901D00120704770
:10267000022180F83D100168CA6842F00102CA6078
:1026800000681149884211D0B0F1804F0ED00F4937
:1026900088420BD00E49884208D00E49884205D0A6
:1026A0000D49884202D00D49884207D181680C4A01
:1026B0001140062906D0B1F5803F03D0016841F0F2
:1026C0000101016000207047002C0140000400401F
:1026D00000080040000C0040003401400040014070
:1026E000070001000168CA6822F00102CA6001689F
:1026F0000A6A41F211131A4207D10A6A9B101A4260
:1027000003D10A6822F001020A60012180F83D101D
:1027100000207047704770B50446006801694FF0AB
:102720000005C943890715D4C168C943890711D475
:10273000E91E01610120207720688069800720461A
:1027400002D0FFF7E7FF04E000F0A7F8204600F012
:10275000A5F8257720680169C943490717D4C168DE
:10276000C943490713D46FF00401016102202077A7
:102770002068806910F4407F204602D0FFF7CAFF2E
:1027800004E000F08AF8204600F088F825772068F9
:102790000169C943090716D4C168C943090712D49E
:1027A0006FF008010161042020772068C06980076C
:1027B000204602D0FFF7AEFF04E000F06EF820469E
:1027C00000F06CF8257720680169C943C90617D461
:1027D000C168C943C90613D46FF010010161082014
:1027E00020772068C06910F4407F204602D0FFF7B0
:1027F00091FF04E000F051F8204600F04FF82577F3
:1028000020680169C943C90708D1C168C943C9071C
:1028100004D1891E0161204600F041F82068016959
:10282000C943090609D4C168C943090605D46FF034
:10283000800101612046FFF775FE20680169C943E8
:10284000C90509D4C168C943090605D46FF480716C
:1028500001612046FFF765FE20680169C94349060A
:1028600009D4C168C943490605D46FF0400101612C
:10287000204600F016F820680169C94389060BD488
:10288000C168C943890607D46FF020010161204661
:10289000BDE87040FFF747BE70BD7047704702F05B
:1028A00081BB7047704770472DE9F04102680446CC
:1028B000D0691168936840F60F0528424FF0000573
:1028C00005D186067BD58E0679D5216E88E04D4FE1
:1028D00003F001060F40374371D0C70707D0CF057B
:1028E00005D501271762E26F42F00102E267820715
:1028F00008D5DA0706D0276802223A62E26F42F072
:102900000402E267420708D5DA0706D023680422EA
:102910001A62E26F42F00202E26702070AD501F092
:102920002002324306D0236808221A62E26F42F086
:102930000802E267020509D54A0107D523684FF46A
:1029400000621A62E26F42F02002E267E26F002A40
:102950002ED0800605D5880603D5216E09B1204604
:102960008847E06F21688968490602D410F0280F73
:1029700020D0204601F0A2FB20688168490614D5CA
:10298000816821F040018160E06E70B11E49816371
:10299000E06EFEF791FB00280AD0E06E816B00E04C
:1029A0002046BDE8F041084709E02046FFF77BFFDD
:1029B000BDE8F0812046FFF776FFE567F8E7C6023D
:1029C00009D55B0207D54FF4801010622046BDE8A0
:1029D000F041FFF767BF030605D50B0603D5616E0F
:1029E0000029DDD1E4E74006E2D54806E0D51168CC
:1029F000204621F04001116020216167656600F0EA
:102A000016FAD5E720010004A940000810B504001B
:102A100002D0606F10B107E0012010BD002084F8E3
:102A20007000204600F026F82420606720680168C6
:102A300021F001010160204601F0AAFB0128ECD041
:102A4000606A10B1204601F09FFA2068416821F4C5
:102A5000904141602068816821F02A0181602068EE
:102A6000016841F0010101602046BDE8104001F01D
:102A7000EFBA0000F0B587B0044614216846FDF7B0
:102A8000DAFB4E48256800234D49032202244D4EAF
:102A9000854220D1C86D40F00100C865C86D00F0C6
:102AA00001000590C86C40F00400C864C86C029333
:102AB00000F004000590CDE900240820CDE90320B2
:102AC00069463046FEF726FC002211464620FEF7F6
:102AD000BDFD462026E0DFF8F0C007274FF090400C
:102AE000654523D10D6E45F480450D660D6E05F4E8
:102AF00080450595CD6C45F00105CD64C96CCDE9E7
:102B0000023201F0010105914FF4C061CDE90014DA
:102B100004976946FEF7FEFB002211462520FEF7CA
:102B200095FD2520FEF784FD07B0F0BDDFF89CC0C1
:102B300065451FD18D6D45F400358D658D6D05F4AE
:102B400000350595CD6C45F00105CD64C96CCDE926
:102B5000023201F0010105910C21CDE90014049726
:102B60006946FEF7D7FB002211462620FEF76EFDD0
:102B70002620D7E716488542D6D1886D40F48020BC
:102B80008865886D00F480200590C86C40F00400D2
:102B9000C864C86CCDE9023200F004000590302012
:102BA000CDE90004694604973046FEF7B3FB0022E6
:102BB00011462720FEF74AFD2720B3E7008000409A
:102BC0000010024000080048003801400044004066
:102BD000004800402DE9F84F0446806F9A4616469B
:102BE0000D4620286BD1EDB1E6B194F870000128B4
:102BF00065D0012084F870004FF00008C4F87C8094
:102C00002220A067FEF7BEFCA4F858608146A4F815
:102C10005A60A0684FF48053FF21984208D122697E
:102C20001AB11CE0012000F04CB840F2FF1116E090
:102C30007F2290B1B0F1805F14D0A4F85C8000BF17
:102C4000B4F85C70984201D1206990B12E460025FD
:102C500084F8708007F0FF0825E0266936B9A4F8EB
:102C60005C10EDE7216909B13F21F8E7A4F85C2089
:102C7000E6E70026ECE74B46002220212046CDF86F
:102C800000A001F0ABFB08B10320CCE72068808CEA
:102C90008EB100EA080006F8010B00BFB4F85A0034
:102CA000401EA4F85A00B4F85A000028E3D12020AE
:102CB000A0670020B7E7384025F8020BEEE70220B6
:102CC000B1E718BCBDE8E08F30B5836F202B4BD146
:102CD000B1B1AAB190F87030012B45D0012380F832
:102CE00070304165A0F85820A0F85A2000210166F4
:102CF0001D038268FF23AA4207D1026912B125E0B1
:102D0000012030BD40F2FF1226E07F24E2B1B2F193
:102D1000805F1ED0A0F85C10C16722228267026823
:102D2000936843F0010393608268AA4201D102696B
:102D3000C2B10E4A026680F870100068016841F462
:102D400090710160002030BD026942B9A0F85C308A
:102D5000E2E702691AB13F22A0F85C20DCE7A0F8A4
:102D60005C40D9E7024AE5E7022030BD3541000862
:102D7000DB40000802F026B92DE9F8430446406F15
:102D80001F4616460D4620284FD1CDB1C6B194F846
:102D90007000012849D0012084F870004FF000082D
:102DA000C4F87C8021206067FEF7ECFBA4F850603B
:102DB0008146A4F85260A068B0F5805F03D004E0BB
:102DC0000120BDE8F883206928B12E465FF0000598
:102DD00084F8708010E00026FAE78021204601F098
:102DE000FDFAB8B9C6B116F8010B21680885B4F828
:102DF0005200401EA4F85200B4F852004B464FF067
:102E0000000200970028E8D14FF04001204601F071
:102E1000E5FA30B10320D4E735F8020BC0F308001F
:102E2000E3E7202060670020CBE70220C9E7704776
:102E3000FEE7000070B586B014216846FDF7FBF987
:102E40001348C16C41F00201C164C06C114E00F026
:102E50000200059001224FF440713046FEF78DFBD1
:102E600001244FF48070CDE9000402256946304604
:102E7000CDE90245FEF74EFA6002CDE9000469464D
:102E80003046CDE90245FEF745FA06B070BD0000B8
:102E900000100240000400482DE9F04107461C469E
:102EA00015460E462A2000F063FB380A00F06EFB40
:102EB000F8B200F06BFB280A00F068FBE8B200F003
:102EC00065FB2B2000F054FB300A00F05FFBF0B2F2
:102ED00000F05CFB200A00F059FBE0B200F056FB6A
:102EE000BDE8F0412C2000F043BB000070B5040A9F
:102EF000C5B2EF2300211A460846FFF7CDFF0F4960
:102F000000204FF4107200BF01F8104001EB4003A5
:102F1000401C80B25D709042F6D30122D102084875
:102F2000FEF72BFB00244FF490652946034800F080
:102F3000F1F9641CA4B2642CF7D370BD9003002097
:102F4000000800482DE9FE4F4FF00008141A4746CC
:102F5000454699421FD1FFF79FFF324932480A8800
:102F6000110AD2B206E000BF00F8151000EB4503CD
:102F70006D1C5A70AC42F7D80122D1022B48FEF7E3
:102F8000FCFA4FF6FF7000EA440103B0264800F057
:102F90004FB800F0BFB9CDE900105E1A4FF0FF3016
:102FA000002C02DD4FF0010102E003D14FF00001DF
:102FB0008B4602E08346C4F10004002E02DD4FF090
:102FC000010002E003D14FF00000824602E0824699
:102FD000C6F10006B44201DD254600E03546681C16
:102FE0004FF00009029018E0009881B2019880B279
:102FF00000F026F8A0443744A84504DD0198A8EB6A
:10300000050858440190AF4203DD00987F1B5044EF
:10301000009009F101001FFA80F902998945E3DD6A
:1030200000F00BB8100000209003002000080048BA
:1030300030BCBDE8C04FFFF7ACBF1EBCBDE8E08FA1
:1030400010B50B460246FFF727FF03480088BDE88E
:10305000104000F0A9BA0000100000202DE9F05F38
:10306000141A5F1A641C7F1C7C43002564004FF413
:1030700090680A9E444502D9A4F590654446FFF73E
:103080000BFF370ADFF85090DFF850B0F6B24FF47C
:10309000006A0020494606E001F8107001EB40028A
:1030A000401C567080B2B0EB540FF5D3012251464C
:1030B0005846FEF762FAA1B2074800F02BF9002D3E
:1030C00007D0454502D9A5F59065E2E72C460025D5
:1030D000DFE700F005B8000090030020000800487A
:1030E00030BCBDE8C09F000030B51C4887B0C16C43
:1030F00041F00401C164C06C4FF4386400F0040076
:1031000005900120CDE9004002900220144D03906B
:1031100069462846FEF7FEF8002221462846FEF7BB
:103120002CFA00224FF400712846FEF726FA0022FE
:1031300080212846FEF721FA4FF4807400222146B0
:103140002846FEF71AFA782001F0E0FE0122214617
:103150002846FEF712FA07B030BD0000001002400A
:103160000008004810B5FFF7BFFF782001F0CEFE41
:10317000112000F0FDF9782001F0C8FE362000F0A3
:10318000F7F9002000F002FA3A2000F0F1F965208A
:1031900000F0FCF9B22000F0EBF90C2000F0F6F999
:1031A0000C2000F0F3F9002000F0F0F9332000F0DB
:1031B000EDF9332000F0EAF9B72000F0D9F97220D8
:1031C00000F0E4F9BB2000F0D3F93D2000F0DEF977
:1031D000C02000F0CDF92C2000F0D8F9C22000F07A
:1031E000C7F9012000F0D2F9C32000F0C1F919207D
:1031F00000F0CCF9C42000F0BBF9202000F0C6F9A3
:10320000C62000F0B5F90F2000F0C0F9D02000F082
:10321000AFF9A42000F0BAF9A12000F0B7F9E0203E
:1032200000F0A6F9D02000F0B1F9042000F0AEF9CA
:103230000D2000F0ABF9112000F0A8F9132000F0E8
:10324000A5F92B2000F0A2F93F2000F09FF95420AF
:1032500000F09CF94C2000F099F9182000F096F944
:103260000D2000F093F90B2000F090F91F2000F0E2
:103270008DF9232000F08AF9E12000F079F9D020BF
:1032800000F084F9042000F081F90C2000F07EF9B0
:10329000112000F07BF9132000F078F92C2000F0C9
:1032A00075F93F2000F072F9442000F06FF95120C9
:1032B00000F06CF92F2000F069F91F2000F066F98A
:1032C0001F2000F063F9202000F060F9232000F0B7
:1032D0005DF9212000F04CF9292000F049F9EF2395
:1032E00000211A460846FFF7D7FD4FF6FF70FFF79B
:1032F000FDFD0122BDE8104080210148FEF73DB9E7
:10330000000800480246012000E05043491EC9B2AF
:10331000FBD2704700F022B92DE9F05F203AD7B216
:103320001C46F022A2EB540282425BD3C4F1F002AD
:103330008A4257DB0A19521E93B200EB5402521E06
:1033400092B2FFF7A9FD3F4E102C1AD0202C18D0B6
:103350000C2C49D0182C45D13B4907EB47004FF0C6
:10336000300A002401EB00194FEA060819F804603E
:10337000E00756D004270025300654D5B8F80000E1
:1033800053E0600700D0012000EBD400610810FB7F
:1033900001F000F0FF082D48002500EB071A00F5AA
:1033A000BE5000EBC71BB1461AE0102C09D0202CF0
:1033B00018D11BF805600027300605D5B9F80000C4
:1033C00004E01AF80560F6E7B9F8020000F0ECF83E
:1033D00070067F1C060EFFB2082FEDD36D1CEDB2F8
:1033E0004545E2D300F036B8194807EB47014FF0E6
:1033F0000C09002400EB8108002518F80470380639
:1034000001D5308800E0708800F0CEF878066D1C99
:10341000070EEDB2062DF2D3641CE4B24C45EBD39B
:10342000E0E70827A7E7B8F8020000F0BDF870064B
:103430006D1C060EEDB2BD429ED3641CE4B2544531
:1034400094D3CFE7100000206C5D00087C57000883
:103450000853000830BCBDE8C09F2DE9F05F00268E
:10346000DDF828901D4692468B46804634464FEA4A
:10347000590723E0281B401EC1B20A20FFF742FF74
:10348000BAFBF0F00A21B0FBF1F201FB120026B901
:10349000691E8C4201DA38B101263030C2B207FB16
:1034A000048080B24B4604E007FB048080B24B46A8
:1034B00020225946FFF730FF641CE4B2AC42D9D356
:1034C00000F000B830BCBDE8C09F2DE9F0470446CD
:1034D00000F0FF0910190D46DDE908A61FFA80F873
:1034E000581987B210E0444503D305EB0A004C4657
:1034F00085B2BD420DD2534629462046FFF70CFF48
:1035000004EB5A0084B2761C3278A2F120005E28C7
:10351000E9D9BDE8F087000070B514460219049E91
:103520001D46F02A17D84B19F02B14D85B1E521EDB
:103530009BB292B2FFF7B0FC0122D1020648FEF71F
:103540001CF86C434FF6FF7000EA44013046BDE8BA
:103550007040FFF7DFBE70BD000800480A46014614
:103560004FF47A730148FEF7F5BE0000E00000203A
:1035700001B500224FF400610348FDF7FEFF012171
:103580006846FFF7C7FE08BD0008004801B50122E4
:10359000D1020448FDF7F1FF01216846FFF7BAFEAA
:1035A00008BD00000008004808B500210091010A8C
:1035B0008DF800108DF801000122D1020348FDF7BB
:1035C000DCFF02216846FFF7A5FE08BD00080048A1
:1035D00000EB8100006E00F0F84070478068C0F397
:1035E000C00070478068C0F3800070478068C0F3F7
:1035F00080007047C06810F4406F01D00020704711
:1036000001207047042303EAD15310B518444369DD
:10361000C1F3045107248C40A3438A401343436100
:1036200010BD00EB8100016E21F0004111430166E5
:10363000704700000A4808B50068C06980060AD5CE
:103640004FF47A73012269460548FFF7C3FA05492A
:103650009DF8000008800248FFF726F908BD000029
:10366000900100202800002030B589B00024069485
:103670000794182168460894FCF7DDFD2348224989
:10368000042501604FF40021C0E9011401214561C6
:10369000C0E90341047641760222C26180F82040ED
:1036A0008462C46280F83010446380F83840FDF7CB
:1036B0005DFB08B1FDF7DEF806A914480694FDF796
:1036C000DBF808B1FDF7D6F811480090062001900C
:1036D000052002907F200594CDE9030569460B483B
:1036E000FDF742F908B1FDF7C5F80A4800900C2033
:1036F000019069460548FDF737F9002801D0FDF72C
:10370000B9F809B030BD00000000045034000020BA
:103710000800900C1000C010094808B5816C41F0F9
:1037200001018164806C002200F0010000901146CC
:103730000B20FDF78BFFBDE808400B20FDF778BF9D
:103740000010024010B586B014216846FCF773FDE6
:103750001548C16C41F08001C164C16C01F0800169
:103760000591C16C41F00401C164C16C01F0040118
:103770000591C16C41F00101C164C06C0B4C00F0BB
:1037800001000590002240212046FDF7F6FE402072
:10379000009001200021CDE90101039169462046F6
:1037A000FDF7B8FD06B010BD00100240000800484B
:1037B00010B5104C0E480C2120604FF4E1306060D1
:1037C0000020A060E060C4E90401A061E061206223
:1037D00060622046FFF71AF908B1FDF74BF821683F
:1037E000402008622068016841F02001016010BD9E
:1037F0000080004090010020124810B5104901607F
:103800004FF48271416000214FF4E062C0E902127E
:103810000222026101224261520282611022C0E949
:10382000072107224162C0E90A1201634163FEF7E2
:10383000EDFC002803D0BDE81040FDF71BB810BD1B
:10384000003C0040E00000203EB500240F480094FA
:1038500001940D490294016040F21F31C0E9011446
:1038600040F6B8318461C160FEF7ACFE08B1FDF7E7
:1038700001F80094694605480294FEF755FE0028B9
:1038800001D0FCF7F7FF3EBD0010004044010020CE
:1038900010B5104C0E480C2120604FF4E1306060F0
:1038A0000020A060E060C4E90401A061E061206242
:1038B00060622046FFF7AAF808B1FCF7DBFF216839
:1038C000402008622068016841F02001016010BDBD
:1038D000003801401002002010B5104C0E480C2199
:1038E00020604FF4E13060600020A060E060C4E937
:1038F0000401A061E061206260622046FFF786F863
:1039000008B1FCF7B7FF2168402008622068016811
:1039100041F02001016010BD0044004090020020F1
:103920000D4810B50B4901604FF4E13141600021B1
:1039300081600C22C160C0E904128161C161016231
:103940004162FFF763F8002803D0BDE81040FCF7A0
:1039500091BF10BD0048004010030020FEE77047F3
:10396000704700002DE9F041444C05468846E06868
:103970000026810728680DD0E16801F0030181422B
:1039800016D1A8B1E0686968C0F30210401C8842F3
:103990000ED120E0012804D0022805D0032807D149
:1039A00008E02168890701E021684905002907DB53
:1039B00001265FE02168890302D421684903F5E705
:1039C000E1686A686FF00F0321F0730103EB0212E4
:1039D00011430143E160206820F080602060FDF722
:1039E000D1FD074605E000BFFDF7CCFDC01B022856
:1039F00037D820680001F7D4B8F1000F18D0B8F11B
:103A0000010F1ED0287D4FF07E41400801EB406041
:103A1000A96840EA01202169194A11400843206140
:103A2000206840F080602060FDF7ACFD07461AE09A
:103A3000A868E9680002090940EA41402169114A81
:103A4000EBE7288A1049400801EB4050A96840EA9A
:103A5000012021690D4AE0E7FDF794FDC01B022813
:103A600001D9032606E020680001F5D52069A9697F
:103A7000084320613046BDE8F0810000001002409C
:103A8000FF80FFF9FF80FDFF0000E0FFFF809FFF48
:103A90002DE9F0413D4C06468846E0680025810747
:103AA00030680DD0E16801F00301814216D1A8B160
:103AB000E0687168C0F30210401C88420ED120E01B
:103AC000012804D0022805D0032807D108E0216886
:103AD000890701E021684905002907DB012551E03C
:103AE0002168890302D421684903F5E7E168726817
:103AF0006FF00F0321F0730103EB02121143014336
:103B0000E160206820F080502060FDF73BFD074613
:103B100005E000BFFDF736FDC01B022829D820684C
:103B20008000F7D4B8F1000F15D0307C4FF07E4103
:103B3000400801EB4060B16840EA01206169144A25
:103B4000114008436061206840F080502060FDF71C
:103B500019FD07460FE0B068F1680002090940EA64
:103B6000414061690B4AEBE7FDF70CFDC01B0228E1
:103B700001D9032506E020688000F5D560697169E8
:103B8000084360612846BDE8F08100000010024053
:103B9000FF80FFF9FF80FDFFF8B51C4D06460024AD
:103BA000A86DC00002D5FDF7B7FD0DE0A86D40F08F
:103BB0008050A865A86D00F080500090FDF7ACFD26
:103BC000A96D21F08051A965B0F5007F04D0802E49
:103BD00007D94FF003040AE0802E08D9A02E01D89F
:103BE00004E001D1022402E0702E00D10124084833
:103BF000016821F0070121430160006800F007001F
:103C0000A04201D00120F8BD0020F8BD0010024004
:103C100000200240F8B515460E460B4600920446B9
:103C200000224FF4C05100F019F888B93346002241
:103C300080212046009500F079F848B933460022EB
:103C40004FF4C0612046009500F008F8002804D029
:103C5000206E40F0200020660320F8BD2DE9F84FCB
:103C6000994617460E4604460A9DFDF78BFC411BFC
:103C7000A9EB0105FDF786FC804629484FF4C06A90
:103C80000068C0EBC00000EB8000000D68430090AE
:103C90003FE0564501D107B9007BB9F1FF3F38D06D
:103CA000FDF770FCA0EB0800A84203D215B1009804
:103CB00060B32CE02068416821F0E0014160606859
:103CC000B0F5827F0BD1A068B0F5004F02D0B0F5FF
:103CD000806F04D12068016821F040010160A06A72
:103CE000B0F5005F09D12068016821F4005101603E
:103CF0002068016841F400510160012084F85D00F2
:103D0000002084F85C00032000F00CB80025401E61
:103D10000090206881683140B942BAD10020F3E7B1
:103D20000C00002018BCBDE8E08F00002DE9F8432E
:103D30001E46914688460446089DFDF723FC401B1D
:103D4000351AFDF71FFC074625480068C0F3CB3045
:103D5000684338E0701C37D0FDF714FCC01BA84244
:103D600003D215B1009860B32CE02068416821F0BF
:103D7000E00141606068B0F5827F0BD1A068B0F5CA
:103D8000004F02D0B0F5806F04D12068016821F0A7
:103D900040010160A06AB0F5005F09D120680168A8
:103DA00021F4005101602068016841F40051016074
:103DB000012084F85D00002084F85C000320BDE849
:103DC000F8830025401E00902068816838EA0100D1
:103DD00004D000214945BDD10020F0E70121F9E7D9
:103DE0000C0000207047FDF7D3BB2DE9F041B8B0BF
:103DF000442122A8FCF71FFA142133A8FCF71BFA70
:103E000088216846FCF717FA01263004CDE92260C4
:103E100002240327CDE92C4714204FF00708CDE9F1
:103E20002E60CDE93084329422A8FDF75BFF002597
:103E30000F20CDE9347533903695042133A837959A
:103E4000FDF74AFE44F206000F950090E0061E9032
:103E50000820CDE90260109501974005CDE90640A4
:103E6000CDE904846846FDF75FFC2002FDF720FCE5
:103E700038B0BDE8F08100000D48016841F47001E0
:103E800001600C48016841F001010160002181607E
:103E90000268094B1A4002608214C260026822F470
:103EA0008022026081610249C00380390860704746
:103EB00088ED00E000100240FFFFF6EA0148FEF73F
:103EC0002ABC0000440100202DE9F0470268264B7F
:103ED000264D274E274F284C4FF0804A984209D054
:103EE000504507D0A84205D0B04203D0B84201D017
:103EF000A04204D122F0700C4A6842EA0C02DFF8BA
:103F00007CC0DFF87C80DFF87C9098420FD0504571
:103F10000DD0A8420BD0B04209D0B84207D0A04281
:103F200005D0604503D0404501D0484503D122F477
:103F30004075CA682A434D6922F080022A43026014
:103F40008A68C2620A688262984207D0A04205D09D
:103F5000604503D0404501D0484501D1096901635E
:103F600001214161BDE8F087002C014000040040C0
:103F700000080040000C00400034014000400140B7
:103F8000004401400048014090F82410C90706D0C1
:103F900001684A68836A22F400321A434A6090F842
:103FA0002410890706D501684A68C36A22F4803262
:103FB0001A434A6090F82410490706D501684A68F8
:103FC000036B22F480221A434A6090F824100907F8
:103FD00006D501684A68436B22F400421A434A60DE
:103FE00090F82410C90606D501688A68836B22F40C
:103FF00080521A438A6090F82410890606D5016819
:104000008A68C36B22F400521A438A6090F8241025
:10401000490611D501684A68036C22F480121A43DC
:104020004A60016CB1F5801F06D101684A68436C93
:1040300022F4C0021A434A6090F82410090606D5FB
:1040400001684A68806C22F4002202434A6070478B
:10405000F8B500260446C667FDF794FA05462068C1
:1040600000686FF07E47000708D52B4600224FF40A
:1040700000112046009700F0B1F960B9206800688F
:1040800040070AD52B4600224FF4800120460097B6
:1040900000F0A4F908B10320F8BD20206067A067F4
:1040A00084F870600020F8BD10B5806A0021A0F887
:1040B0005A10A0F85210FEF7F6FB10BD01680A680E
:1040C00022F490720A6001688A6822F001028A6014
:1040D0002021816700210166704710B5B0F85C208F
:1040E000836F0168222B04D0088B40F008000883FE
:1040F00010BD898C436D11401980416D891C41654B
:10410000B0F85A10491EA0F85A10B0F85A100029F9
:10411000EED101680A6822F490720A6001688A6828
:1041200022F001028A602021816700210166FEF7EA
:1041300021FE10BD10B5B0F85C20836F0168222B02
:1041400004D0088B40F00800088310BD898C114012
:10415000426D1170416D491C4165B0F85A10491EFD
:10416000A0F85A10B0F85A100029EED101680A6878
:1041700022F490720A6001688A6822F001028A6063
:104180002021816700210166FEF7F4FD10BD0000CB
:104190002DE9F0410446016880682269E369104313
:1041A000626900251A431043824F0A68824B1A4005
:1041B00002430A6020684168E26821F440511143DB
:1041C00041602168A069B94201D0226A10438A681F
:1041D00022F4306202438A607849226878488A4231
:1041E0000DD1D0F8880010F0030006D0012866D069
:1041F000022854D0032851D163E001204FE07149D7
:104200008A420BD1D0F8880010F00C0047D0042867
:1042100045D0082851D00C2840D152E06A498A4242
:104220000BD1D0F8880010F0300038D0102846D0DC
:10423000202842D0302831D143E064498A420BD152
:10424000D0F8880010F0C00029D0402837D080284E
:1042500033D0C02822D134E05D498A420ED1D0F853
:10426000880010F440701AD0B0F5807F27D0B0F5E8
:10427000007F22D0B0F5407F10D122E0BA420DD1AC
:10428000D0F8880010F4406009D0B0F5806F16D0E7
:10429000B0F5006F11D0B0F5406F12D010204D4B2B
:1042A00000264FF40041BA422ED160B1022813D04B
:1042B00004280BD0082874D10DE00220EFE7042079
:1042C000EDE70820EBE7FDF797FC01E0FDF7B8FC10
:1042D000030001D169E00B46626802EB420098429C
:1042E0005FD8B3EB023F5CD8190E180273084FEA8F
:1042F0003207C01959410023FBF762FF364AA0F587
:10430000407191424FD94CE0E2694FF6EF778A4213
:1043100028D1092845D2DFE800F0050811440D44F2
:1043200044441000FDF768FC01E0FDF777FC030052
:1043300004D13AE0FDF784FCF9E70B4660685900C8
:1043400001EB5001B1FBF0F080B2A0F11001B942D5
:1043500027D84FF6F0710140C0F3420001432068B6
:10436000C16022E009281CD2DFE800F00508111B1B
:104370000D1B1B1B1000FDF73FFC01E0FDF74EFC81
:10438000030004D111E0FDF75BFCF9E70B46606820
:1043900003EB5001B1FBF0F080B2A0F11001B94283
:1043A00001D9012501E02168C860266628466666B5
:1043B000BDE8F08100800040F369FFEF0038014064
:1043C000001002400044004000480040004C004003
:1043D000005000400024F400FFFC0F002DE9F047DE
:1043E0009A4617460E4604464FF000094FF0200843
:1043F000089D39E0681C37D0FDF7C4F8A0EB0A002F
:10440000A84222D80DB32068016849072CD5C0699D
:10441000C043000528D421684FF40060086220687A
:10442000016821F4D07101602068816821F00101E8
:104430008160C4F87480C4F87880C4F87C8000BFC0
:1044400084F870900320BDE8F0872068016821F4AB
:10445000D07101602068816821F001018160C4F899
:104460007480C4F87880EBE72068C06936EA000001
:1044700004D00020B842BDD00020E4E70120F9E7D5
:104480000A4808B50068C06980060AD54FF47A73F7
:10449000012269460548FEF79DFB05499DF800008D
:1044A00008800248FEF700FA08BD00001002002054
:1044B000280000200A4808B50068C06980060AD5AF
:1044C0004FF47A73012269460548FEF783FB0549DC
:1044D0009DF8000008800248FEF7E6F908BD0000DC
:1044E00090020020280000200148FEF7DDB90000FE
:1044F00010030020FEE700000FB4054B10B503A920
:10450000044A029800F058F910BC5DF814FB000052
:1045100039500008300000200FB4084B10B504A932
:1045200002AA039800F048F9044602A9002000F00E
:10453000DDFC204610BC5DF814FB0000ED4E0008C9
:104540000907090E002804DB00F1E02080F80014C0
:10455000704700F00F0000F1E02080F8141D704754
:1045600002E008C8121F08C1002AFAD1704770473C
:10457000002001E001C1121F002AFBD170471CB5C9
:104580002021CDE900100B46F0220A211E20FEF763
:104590009CFF1CBD1FB500251C4902954FF47840B7
:1045A0000395088000F040FEFEF744FCDFF86080D1
:1045B000184C0DF108094FF47A7618272288B24278
:1045C0000DD2029514A102A80395FFF7A5FFCDE92E
:1045D000007964221823B6211046FEF776FF009773
:1045E0000223B8F80020D2216420FEF736FF3046BF
:1045F00000F08CFC2088401C80B22080B04200D3A8
:10460000258006A0FFF778FFD8E700001000002003
:1046100028000020260000202534640052756E6EAC
:10462000756E672E2E2E0D0A000000002DE9FF5F2B
:1046300082B00021DDE90430020DDDF840B0034313
:1046400018D044F61050A2F2FF32424315141198CC
:1046500001281FD0A5EB0B00401C5FEA000A4FF0B9
:1046600000064E4FDFF83891B046504615D5CAF1D6
:10467000000413E0119801244AA3012801D16FEA34
:104680000B010298119AC0E90031C0E9024206B05C
:1046900000F08EB8CBF10000DFE704460021404A6D
:1046A000491842EB0450CDE9001012E0E00707D0B2
:1046B00032463B4640464946FBF7C8FD80468946A0
:1046C00032463B4610461946FBF7C0FD06460F46EC
:1046D0006410002CEAD1DDE90401DDE90023BAF120
:1046E000000F06DAFBF7B2FD42464B46FBF7AEFD84
:1046F00005E0FBF761FF42464B46FBF75DFF0446D2
:104700000E460022284BFBF7DFFF03D84FF0FF30A7
:10471000014607E00022254B20463146FBF79DFE6F
:10472000FBF7B9FF102409E0002C0ADB0A22002362
:10473000FBF746FD039B30321A55641E50EA010216
:10474000F2D1641C039AC4F111031444119A012A92
:1047500003D0012208430DD10AE0084304D0002011
:104760004FF0110B119072E7A3EB0B056D1E0DE0DE
:104770005B4504DD4FF0000205F1010504E003DABA
:104780004FF00002A5F10105002AECD00298119922
:10479000C0E90231C0E9004579E70000000014409B
:1047A0000000F03F300000000000F0430000E03F58
:1047B00030BCBDE8C09F00002DE9FF4F95B09B467F
:1047C0008946064600250FE2252877D10024274692
:1047D000F84A0121059400E0044316F8013F203B0C
:1047E00001FA03F01042F7D130782A2811D06FF087
:1047F0002F033078A0F13002092A16D8059A44F028
:10480000020402EB820203EB42021044761C059084
:10481000EFE759F8042B0592002A03DA504244F4DA
:104820000054059044F00204761C30782E2816D1EE
:1048300016F8010F44F004042A280DD06FF02F025F
:104840003078A0F13003092B09D807EB870302EB7E
:104850004303C718761CF3E759F8047B761C3078BD
:104860006C280FD006DC4C2817D068280DD06A2899
:1048700014D104E0742810D07A280FD10DE044F44C
:1048800000140AE044F4801401E044F44014727807
:10489000824202D104F58014761C761C307866289A
:1048A0000BD013DC582877D009DC002875D04528B8
:1048B000F6D04628F4D047281AD19DE118E06328A5
:1048C00035D0642879D0652812D195E1702873D04D
:1048D00008DC6728F1D069286FD06E280DD06F28CA
:1048E00006D1B5E073282CD0752875D0782874D0FF
:1048F0005A46179990476D1C75E1C4F3025002287F
:1049000009D003280DD0D9F8001004280DD00D606F
:1049100009F1040967E1D9F80010EA17C1E900526A
:10492000F6E7D9F800100D80F2E70D70F0E719F8FE
:10493000041B8DF8001000208DF80100EA460120CC
:1049400003E059F804AB4FF0FF3061074FF000016E
:1049500002D40DE008F101018846B9420FDA804522
:10496000F8DB1AF808100029F4D108E008F1010179
:1049700088468142FADB1AF808100029F6D105981A
:104980005B46A0EB080721463846179A00F097FAD5
:10499000284400EB080507E04DE029E10DE01AF896
:1049A000010B5A4617999047B8F10108F7D25B46B8
:1049B00021463846179A13E142E00A220092C4F3D6
:1049C00002524FF0000A022A08D059F804CB032AF9
:1049D0004FEAEC710AD00DE029E02AE009F1070165
:1049E00021F00702F2E802C1914609E00FFA8CFCBF
:1049F0004FEAEC71042A03D14FFA8CFC4FEAEC71B8
:104A0000002907DA0A460021DCF1000C61EB020103
:104A10002D2202E0220504D52B228DF8042001224C
:104A200003E0E20701D02022F7E7904659E00A218F
:104A300002E010220DE010214FF0000A00910BE07F
:104A400010224FF0000A44F004040827009203E00B
:104A500008224FF0000A0092C4F30252022A05D045
:104A600059F804CB0021032A08D009E009F1070115
:104A700021F00702F2E802C1914605E01FFA8CFC22
:104A8000042A01D10CF0FF0C4FF00008220728D5B2
:104A9000702806D0009B83F0100353EA0A0305D068
:104AA0000EE040228DF80420012208E05CEA0102B9
:104AB00006D030228DF804208DF8050002229046A1
:104AC000009B83F0080353EA0A030AD15CEA01025F
:104AD00001D1620705D530228DF804204FF001087E
:104AE0007F1E582804D034A003900EA802900DE039
:104AF00036A0F9E753466046009AFBF761FB84460F
:104B00000398825C0298401E029002705CEA0100E9
:104B1000F0D1029806A9081A00F1200A600702D510
:104B200024F4803400E00127574502DDA7EB0A009A
:104B300000E0002000EB0A01009005984144401A73
:104B40000590E00306D45B462146179A059800F0CD
:104B5000B6F90544002706E001A85A46C05D17993A
:104B600090476D1C7F1C4745F6DBE0030CD55B4688
:104B70002146179A059800F0A2F9054404E0302078
:104B80005A46179990476D1C0099481E00900029BD
:104B9000F5DC08E0029802995A460078491C029117
:104BA000179990476D1CBAF10001AAF1010AF1DCD6
:104BB00065E10000092801003031323334353637E1
:104BC0003839616263646566000000003031323359
:104BD00034353637383941424344454600000000F9
:104BE00000F05BF90544761C307800287FF4ECADCA
:104BF00019B0284600F04EB9620700D4062709F123
:104C0000070222F0070CFCE80223E14603F000480B
:104C10005FEA080C02D00FF2702C0DE05FEA045C32
:104C200002D50FF2682C07E05FEAC47C02D00FF2D5
:104C3000602C01E0AFF2700C4FF0FF3823F000431E
:104C4000CDF850C065280CD006DC452809D0462890
:104C50001DD047283DD13DE0662818D067287ED179
:104C600038E00021112F01DB112000E0781CCDE994
:104C7000000106A90EA8FFF7D9FCDDE90F010E9A85
:104C800003910021009207F1010A04914DE04FF0D9
:104C900000400097CDE9011006A90EA8FFF7C6FC59
:104CA000DDE90F0203920E9B11990022DDF80CA0A2
:104CB0000093049211B9791C00EB010AB7EB0A00CA
:104CC00004D4C0F1FF3007F1010A0490AAEB0700F9
:104CD000019044E0012F00DA01270021112F01DDAE
:104CE000112000E03846CDE9000106A90EA8FFF723
:104CF0009DFCDDE90F010E9A0391002104910092C1
:104D0000BA4621070CD40399514500DA8A46BAF114
:104D1000010F05DD009AAAF10101515C302908D08C
:104D2000B84202DA10F1040F06DA0121CDE90110D0
:104D300015E0AAF10101E9E7002805DC0499014426
:104D40000491AAEB000102E0411C514500DD8A46B6
:104D50000499401A401C01904FF000400290200737
:104D600004D40198504501DBCDF8048000208DF873
:104D70004F0002980DF14F07B0F1004F25D02B20C6
:104D80000E9002984FF0020800280CDA4042029080
:104D90002D200E9007E00A210298FBF7CCFA303163
:104DA000029007F8011DB8F10001A8F10108F2DC3A
:104DB00002980028EFD1791E0E980870307800F024
:104DC000200040F0450007F8020D12A8C01B00F1BA
:104DD00007081498007800B1012000EB0A0101983F
:104DE00001EBE07105984144401A401E0590E00334
:104DF00006D45B462146179A059800F060F80544F2
:104E00001498007818B15A46179990476D1CE00322
:104E100024D55B462146179A059800F050F80544C2
:104E20001CE00498002807DBDDE90301884203DD6C
:104E30000098405C179901E0179930205A46904736
:104E4000049805F10105401C04900198401E019052
:104E500004D12E205A46179990476D1CBAF10001D3
:104E6000AAF1010ADDDC05E017F8010B5A46179993
:104E700090476D1CB8F10001A8F10108F4DC5B4615
:104E80002146179A0598ABE62D0000002B00000084
:104E90002000000030BCBDE8C08F2DE9F041044681
:104EA00000251E461746880404D405E03946202014
:104EB000B0476D1C641EF9D52846BDE8F0812DE988
:104EC000F041044600251E469046C80301D5302710
:104ED00000E02027880404D505E041463846B04765
:104EE0006D1C641EF9D52846BDE8F0810A68531C84
:104EF0000B6010707047000010B504460420FDF7E9
:104F0000F0FA0148046010BD1400002070B5054699
:104F100000244FF47A7603E0304600F005F8641C74
:104F2000AC42F9D370BD000070B54FF0E024002210
:104F300065690949A36909684843A1699942FCD098
:104F400002D2A3EB010302E0A5EB010633441A44AD
:104F50000B468242F1D370BD1400002010B5002032
:104F60000A4908700A4908700A4908804FF48061AC
:104F70000948FBF760F94FF480610848FBF75BF9DB
:104F8000012202490648FDF79FFE10BD2A000020BD
:104F90002B0000202C00002010080020100C002006
:104FA0001003002010B504460448844205D10120B6
:104FB000034908700148FDF795FB10BD440100202E
:104FC0002B00002010B504461448844225D1144813
:104FD0000078E8B913480088B0F5806F15DA002032
:104FE000114909684862801E0F49096808610E4826
:104FF000FDF738FB0D4801780A4802880088401CFC
:10500000084B18800A48815402E0012004490870C6
:10501000012206490148FDF757FE10BD100300208C
:105020002B0000202C000020440100202A0000203A
:1050300010080020FFF7AEFA13B54FF6FF730122F8
:1050400069460248FDF798FE00981CBD90020020BA
:10505000F0B587B014216846FBF7EDF8194CE06C09
:1050600040F00200E064E06C012600F002000590D0
:10507000602000900025CDE90165134F6946384650
:105080000395FCF747F9012260213846FCF775FAD1
:10509000E06C40F00100E064E06CA41500F0010059
:1050A00000940590CDE9016503954FF09045694660
:1050B0002846FCF72FF9012221462846FCF75DFA25
:1050C00007B0F0BD0010024000040048FCF768FA89
:1050D000FEF78BFEFEF736FBFEF71EFBFEF78CFBA2
:1050E000FEF7B2FBFEF764FBFEF7D2FBFEF7F4FB24
:1050F000FEF716FCFEF7B8FA0FA0FFF7FDF95020F7
:10510000FFF7FAFEFFF72AFF00F082F800F01EF822
:10511000FEF728F84FF4FA60FCF7EAF80A4C01228F
:1051200040212046FCF729FA002240212046FCF7C6
:1051300024FAFFF77FFFFEE752756E6E756E672EDD
:105140002E2E0D0A0000000000080048F0B587B0C0
:1051500014216846FBF76FF82A4CE06C40F002001F
:10516000E064E06C012600F0020005901020009041
:105170000025CDE90165244F694638460395FCF7C3
:10518000C9F8012210213846FCF7F7F914216846C6
:10519000FBF751F8E06C40F00400E064E06C1B4F5A
:1051A00000F00400059008200090CDE901656946F3
:1051B00038460395FCF7AEF8002208213846FCF784
:1051C000DCF9FFF745FF14216846FBF734F8E06C83
:1051D00040F00100E064E06CA41400F001000094D1
:1051E0000590CDE9016503954FF090456946284645
:1051F000FCF790F8002221462846FCF7BEF907B0DC
:10520000F0BD000000100240000400480008004803
:1052100010B5022202490348FBF7D6FE002010BD5C
:105220001800002034000020F8B51E4D48F2304030
:105230000021288000903C23F0220846FDF70EFF55
:10524000194C4FF6FF7619A02680FFF798F92E80AB
:1052500047F67C5020803C23F02219460020FDF7C1
:1052600071FE7823F02219460020FDF76BFEB4236F
:10527000F02219460020FDF765FE4FF478402080AB
:105280000D48282300901A4682210A20FEF744F98F
:105290000A48282300901A46BE210A20FEF73CF94E
:1052A000F8BD000012000020100000204E42494FBF
:1052B00054204E4F444500003CAB0008BCD00008D1
:1052C00000000000000000000102030406070809B6
:1052D000A0860100400D0300801A060000350C0076
:1052E00040420F0080841E0000093D0000127A0039
:1052F0000024F40000366E010048E801006CDC0276
:105300000000000001020304000000000000000093
:1053100000000000000020202020200000200000CD
:10532000282850000000000000000000000050503D
:10533000F85050F850500000002070A8A0603028AD
:10534000A8702000000048A8B0A874345448000099
:1053500000002050506CA8A89468000040408000D5
:105360000000000000000000081010202020202075
:1053700010100800402020101010101020204000B5
:1053800000000020A87070A820000000000000109D
:10539000107C101000000000000000000000000061
:1053A000404080000000000000FC00000000000001
:1053B0000000000000000000004000000004080899
:1053C0001010202040408000000070888888888865
:1053D0008870000000002060202020202070000045
:1053E000000070888810204080F80000000070885D
:1053F000083008088870000000001030305090F825
:10540000103800000000F88080F0880888700000E4
:105410000000304880B0C88888700000000078081C
:1054200010102020202000000000708888708888DC
:1054300088700000000070888898680890600000FC
:10544000000000002000000000200000000000001C
:105450000020000000202000000008102040402014
:105460001008000000000000FC00FC00000000002C
:105470000000402010080810204000000000708844
:1054800088102020002000000000384494B4B4B8F4
:1054900044380000000020203050507848CC0000F4
:1054A0000000F0484870484848F000000000788844
:1054B00080808080887000000000F048484848489C
:1054C00048F000000000F8485070504048F80000D4
:1054D0000000F8485070504040E00000000038489C
:1054E00080809C88483000000000CC4848784848BC
:1054F00048CC00000000F8202020202020F80000E8
:1055000000007C1010101010101090E00000EC480B
:105510005060504848EC00000000E04040404040EF
:1055200044FC00000000DCD8D8D8A8A8A8AC000033
:105530000000DC486868585848E80000000070889F
:1055400088888888887000000000F04848704040D3
:1055500040E0000000007088888888E89870180093
:105560000000F0484870504848EC0000000078887F
:105570008060100888F000000000F8A8202020209B
:10558000207000000000CC484848484848300000DF
:105590000000CC4848505030202000000000A8A84F
:1055A000A8A87050505000000000D8505020205043
:1055B00050D800000000D85050502020207000002B
:1055C0000000F8901020204048F8000038202020EB
:1055D00020202020202038000040402020201010D3
:1055E000100808007010101010101010101070002B
:1055F000205000000000000000000000000000003B
:1056000000000000000000FC40200000000000003E
:10561000000000000000000000304838483C000056
:1056200000C0404040704848487000000000000042
:10563000003848404830000000180808083848483A
:10564000483C00000000000000304878403800006E
:10565000001824202078202020780000000000007E
:10566000003C48304038443800C040404070484812
:1056700048EC000000202000006020202070000086
:105680000010100000301010101010E000C040405A
:105690004058506050C8000000E02020202020200A
:1056A00020F800000000000000F0A8A8A8A8000052
:1056B0000000000000F0484848EC00000000000036
:1056C00000304848483000000000000000F0484822
:1056D000487040E000000000003848484838081C86
:1056E0000000000000D8604040E000000000000022
:1056F000007840300878000000000020207820204A
:10570000203800000000000000D84848483C000055
:105710000000000000D850502020000000000000D1
:1057200000A8A870505000000000000000D85020D1
:1057300050D800000000000000CC4848301020C0C5
:1057400000000000007810202078000018101010D1
:105750001030101010101800101010101010101031
:105760001010101060202020201020202020600029
:105770006890000000000000000000000000000031
:105780000000000000000000000000000000001009
:10579000101010101010000010100000001224242F
:1057A000480000000000000000000000000000129F
:1057B00012127E2424247E24242400000000083CAD
:1057C0004A4A48380C0A0A4A4A3C08080000004481
:1057D000A4A8A8B0541A2A2A4A44000000000030A5
:1057E000484848506EA494988976000000602020B4
:1057F000400000000000000000000000000204085B
:1058000008101010101010080804020000402010AA
:1058100010080808080808101020400000000000C8
:105820001010D63838D6101000000000000000001C
:10583000000808087F0808080000000000000000B9
:105840000000000000000000602020400000000078
:10585000000000007E0000000000000000000000CA
:105860000000000000000000606000000000020472
:105870000404080810101020204040000000001808
:1058800024424242424242422418000000000008E2
:105890003808080808080808083E00000000003C16
:1058A0004242420204081020427E00000000003CF8
:1058B0004242020418040242423C0000000000047C
:1058C0000C0C142424447F04041F00000000007EFC
:1058D0004040407844020242443800000000001872
:1058E0002440405C62424242221C00000000007ED4
:1058F0004204040808101010101000000000003CC2
:105900004242422418244242423C00000000003837
:1059100044424242463A02022418000000000000BD
:105920000000181800000000181800000000000017
:105930000000001000000000001010100000000225
:10594000040810204020100804020000000000009D
:1059500000007E00007E000000000000000000400B
:105960002010080402040810204000000000003C41
:1059700042426204080808001818000000000038BD
:10598000445AAAAAAAAAAA5C423C0000000000103D
:1059900010182828243C444242E70000000000F888
:1059A000444444784442424244F800000000003E2F
:1059B000424280808080804244380000000000F82D
:1059C000444242424242424244F80000000000FC8D
:1059D000424848784848404242FC0000000000FC31
:1059E000424848784848404040E000000000003C01
:1059F00044448080808E844444380000000000E7E6
:105A0000424242427E42424242E700000000007CA5
:105A10001010101010101010107C00000000003E3C
:105A20000808080808080808080888F0000000EEC0
:105A3000444850705048484444EE0000000000E0E4
:105A4000404040404040404042FE0000000000EE28
:105A50006C6C6C6C6C54545454D60000000000C73D
:105A6000626252524A4A4A4646E20000000000384A
:105A7000448282828282828244380000000000FCDC
:105A8000424242427C40404040E00000000000387A
:105A900044828282828282B24C380600000000FC7E
:105AA0004242427C4848444442E300000000003E39
:105AB0004242402018040242427C0000000000FEE6
:105AC000921010101010101010380000000000E7A5
:105AD0004242424242424242423C0000000000E751
