:020000040800F2
:10000000E83200207D02000875400008BD34000879
:10001000F93F0008610A0008D14F00080000000005
:100020000000000000000000000000009D0100082A
:10003000FB0A000800000000F90100081145000853
:10004000970200089702000897020008970200082C
:10005000970200089702000897020008970200081C
:10006000970200089702000897020008C10A0008DA
:1000700097020008970200089702000897020008FC
:1000800097020008970200089702000897020008EC
:1000900097020008970200089702000897020008DC
:1000A000970200081D460008970200089702000802
:1000B00097020008970200089702000897020008BC
:1000C00097020008970200089702000897020008AC
:1000D00097020008994E00088D4F0008C54F000890
:1000E000970200089702000897020008970200088C
:1000F000970200089702000897020008970200087C
:10010000970200089702000897020008970200086B
:1001100097020008970200082946000835460008A3
:10012000970200089702000897020008970200084B
:10013000970200089702000897020008970200083B
:10014000970200089702000897020008970200082B
:100150009702000897020008413C00089702000837
:10016000970200089702000897020008970200080B
:10017000970200089702000897020008000000009C
:100180009702000897020008DFF80CD000F0A8FBE7
:10019000004800471D5B0008E83200202C4B19681E
:1001A000086800F05AB880F30988BFF36F8F4FF0EA
:1001B000000080F3118870470000000008480068C4
:1001C000006880F308884FF0000080F3148862B65E
:1001D00061B6BFF34F8FBFF36F8F00DF00BF00BF6B
:1001E00008ED00E0DFF80C00016841F470010160E7
:1001F000704700BF88ED00E0EFF30980BFF36F8F19
:10020000134B1A681EF0100F08BF20ED108A20E96A
:10021000F04F106009B44FF0500080F31188BFF325
:100220004F8FBFF36F8F06F045FB4FF0000080F358
:10023000118809BC1968086800F014B81EF0100F86
:1002400008BF00F014B880F30988BFF36F8F7047C0
:1002500054000020EFF30580704730C8B0E8C04F6D
:10026000FFF7A1BF30C8B0E8C04FFFF7E7BFB0EC61
:10027000088AB0EC08CAFFF7E6BF000006488047CE
:1002800006480047FEE7FEE7FEE7FEE7FEE7FEE77B
:10029000FEE7FEE7FEE7FEE7D94500088901000812
:1002A0002DE9F05F0546002092469B4688460646AB
:1002B000814640241BE0284641464746224600F03E
:1002C0008CF953465A46C01A914110D3114618462C
:1002D000224600F073F92D1A67EB01084F462246BB
:1002E0000120002100F06AF917EB00094E41201EA1
:1002F000A4F10104DFDC484631462A46434600F0BB
:1003000000B830BCBDE8C09F40EA01039B0703D0A2
:1003100009E008C9121F08C0042AFAD203E011F844
:10032000013B00F8013B521EF9D27047D2B201E006
:1003300000F8012B491EFBD270470022F6E710B5EA
:1003400013460A4604461946FFF7F0FF204610BD43
:100350002DE9FE4F81EA030404F0004421F000413E
:1003600000944FF0000B23F0004350EA01045ED0EC
:1003700052EA03045BD0C3F30A54C1F30A552C4478
:10038000A4F2F3340194A0FB0254C1F3130141F42D
:100390008011C3F3130343F4801301FB024400FBF9
:1003A000034E840A970A44EA815447EA8357A4FB20
:1003B000076802958D0A05FB07854FEA932C04FB1D
:1003C0000C542705029D4FEA065847EA1637B5EB4D
:1003D00008056EEB070C870E920E47EA811742EA7A
:1003E0008312A7FB0201B6EB0B0164EB00042B0D9B
:1003F00043EA0C335E1844EB1C50DA465146E7FBE7
:100400000201C5F313044FEA0B3343EA14534FEAD6
:100410000432019C43EA0603A4F10C040294009CFC
:10042000CDE900B400F02FF903B000F003B80020CC
:100430000146F9E730BCBDE8C08F2DE9F04D81EAF7
:10044000030404F0004B21F0004514464FF0000A6D
:1004500023F0004150EA050220D054EA01021DD0E9
:10046000C5F30A570246C5F31303C1F31300C1F3E2
:100470000A5640F4801543F48013A7EB0608101BBE
:10048000D64608F2FD3873EB050002D308F10108E7
:1004900001E092185B41B8F1000F03DA0020014639
:1004A000BDE8F08D00204FF48011064684460EE032
:1004B000171B73EB050705D3121B63EB05030643FC
:1004C0004CEA010C49084FEA300092185B4150EAAF
:1004D0000107EDD152EA030012D082EA040083EA58
:1004E0000501084305D0101BAB4106D201220023B1
:1004F00006E000224FF0004302E06FF001025310CB
:100500001AEB06004CEB085110EB0A0041EB0B0113
:10051000BDE8F04D00F0A8B80EB540F233410291AD
:100520000021CDE900110A460B4600F0ACF803B0FB
:1005300000BD00F0004230F000400AD0C10D01F5CE
:100540006071C0F3160042EA0151C208400711432E
:10055000704700200146704701F0004330B421F09D
:10056000004150EA010206D00A0DA2F56072C1F303
:100570001301002A02DC30BC00207047440F44EA1B
:10058000C104C100E01830BC00EBC25000F035B827
:1005900030B50B46014600202022012409E021FA53
:1005A00002F59D4205D303FA02F5491B04FA02F550
:1005B0002844151EA2F10102F1DC30BD202A04DB23
:1005C000203A00FA02F1002070479140C2F1200366
:1005D00020FA03F3194390407047202A04DB203AA5
:1005E00021FA02F00021704721FA02F3D040C2F153
:1005F000200291400843194670470029A8BF704760
:10060000401C490008BF20F00100704710B4B0FA48
:1006100080FC00FA0CF050EA010404BF10BC7047E3
:1006200049B1CCF1200421FA04F411FA0CF118BFFD
:10063000012121430843A3EB0C01CB1D4FEA0061CC
:100640004FEA102042BF002010BC704700EBC3509F
:1006500010440029A4BF10BC7047401C490008BFCB
:1006600020F0010010BC704710B5141E73F1000497
:1006700008DA401C41F1000192185B411A4301D194
:1006800020F0010010BD2DE9F04D92469B4611B1BE
:10069000B1FA81F202E0B0FA80F220329046FFF720
:1006A0008DFF04460F4640EA0A0041EA0B0153461B
:1006B0005A46084313D0114653EA010019D0C8F135
:1006C00040025046FFF789FF05460E465046594600
:1006D0004246FFF773FF084305D0012004E020469F
:1006E0003946BDE8F08D0020054346EAE0762C430C
:1006F00037430A986305E40AA0EB08000022FD0ACC
:1007000044EA47540A3002D500200146E9E70105D2
:1007100010196941DDE9084500196941BDE8F04D4E
:10072000A2E72DE9FE4F804681EA0300C00F0C4688
:10073000009021F0004123F00045B8EB0200A941F0
:1007400005D24046214690461C460B46024623F001
:100750000040104347D0270DC7F30A00C3F30A51E6
:100760000290401A019040286BDAC3F3130040F462
:10077000801B0098924620B10023D2EB030A63EB62
:100780000B0B01985946C0F140025046FFF716FF87
:1007900006460D4650465946019A00F0B3F810EB54
:1007A00008006141002487EA115284EAE7731A4382
:1007B00040D0009A62B3019A012A4FEA075215DC31
:1007C000001B61EB02014FF0004202EA0752CDE943
:1007D0000042001C41F5801132462B46FFF753FFC3
:1007E00003B000F045B840462146F9E7001B61EB35
:1007F0000201001C41F5801300185B412018A2F58E
:10080000001747EB030140EAD570B6196D4111E0BE
:100810006D084FEA360645EAC0754FEA0752001BDD
:1008200061EB0201001C41F5801149084FEA3000DC
:100830000019514132462B4603B000F01CB8FFF7B7
:1008400013BF0098012240000023D0EB020263EBAB
:10085000E073009821464FEAE074B8EB000061EBCA
:100860000401E9E783F000435BE781F0004158E7CA
:1008700030BCBDE8C08F30BCBDE8C04FFFF7DFBF64
:10088000C1F30A52C1F3130140F2FF3341F4801166
:100890009A4202DA00200146704740F233439A42FE
:1008A000A2F2334202DC5242FFF797BEFFF786BE48
:1008B00030B5041E71F1000404DB4FF000444042E7
:1008C00064EB0101141E73F1000405DB1C464FF0BC
:1008D0000043524263EB0403994208BF904230BD8B
:1008E000064C074D06E0E06840F0010394E807007D
:1008F00098471034AC42F6D3FFF74AFC7CF8000866
:100900009CF80008202A06DBCB17203A41FA02F0B7
:1009100043EAE07306E041FA02F3D040C2F120025C
:10092000914008431946704710B5846A616D11F013
:10093000500F06D0616DC90625D5204600F061FB39
:1009400010BD606D40F400706065206801680907A3
:1009500016D503F055F978B12068C06880040028E6
:100960000ADB606D20F480706065606DC00403D4A4
:10097000606D40F001006065204600F040FB10BD56
:10098000C0688007EBE7E16C496BBDE810400847A1
:1009900010B5806A416D41F040014165816D41F0C3
:1009A0000401816500F02DFB10BD10B5806A00F0D8
:1009B00027FB10BDF8B50446002000902068816830
:1009C00011F0010F41D18168214A11422ED1816875
:1009D000D5432940491C81601E48806800F0E070C2
:1009E00000020DD51C481D490068B0FBF1F0401C09
:1009F00000EB4000800000E0401E00900028FBD18A
:100A000000F00CFF06461BE0816811F0010F03D1D6
:100A100081682940491C816000F000FF801B02288A
:100A20000ED920680068C043C00709D0606D40F04F
:100A300010006065A06D40F00100A0650120F8BDC8
:100A400020680168C943C907DED10020F8BD000055
:100A50003F0000800003045050000020400D0300C0
:100A6000FEE70000F0B5144A00214FF6FF7013783E
:100A7000124C4AF201069D1E0DE0625C50400822B5
:100A8000C7074FEA500000D07040521E12F0FF021C
:100A9000F6D1491C89B2A942EFDBE218C1B212F8C3
:100AA000023C000A8B4205D112F8011C814201D19F
:100AB0000020F0BD0120F0BD40000020400C0020CF
:100AC000014800F0A1BC00007C03002030B590F884
:100AD000444004F01C050124AC40056C6C600468C3
:100AE00063608368102B036803D099600068C2605C
:100AF00030BD9A600068C16030BD7047704700002B
:100B00002DE9F047044690F850009AB00E464FF099
:100B10000009012816D0012084F850000025159501
:100B20001695324F2068B84210D1DFF8C480CDF856
:100B30000080404603F060F88246206803F05CF8CD
:100B400060B10EE002201AB0BDE8F087606D40F0A1
:100B50002000606584F850500120F4E7BAF1000FDE
:100B60000AD0606D40F0200060654FF0010900BFC1
:100B700084F850504846E6E71E4831681E4A00296E
:100B8000816840F61F7321F460411CD094F830C096
:100B900041EA4C31D6F804C041EA0C018160B968E1
:100BA000D8F8087001F0010107F001079268394395
:100BB00002F001021143DBD1B2683168114382684F
:100BC0009A4311430FE08160B968D8F8086001F0DA
:100BD000010106F001069268314302F0010211435F
:100BE000C6D1816899438160C2E7000000000450CB
:100BF0000001045000030450000204502DE9F84F96
:100C000000270446009790F85000DFF8BC930D468B
:100C1000B846012811D0012684F85060206802F0FF
:100C2000E7FF60B1606D40F0200060655FF0010794
:100C300084F85080384600F0DFB90220FBE768688E
:100C40000C23052812D8022807D0032807D004282F
:100C500007D0052807D0062007E06B6006E01220C9
:100C600003E0182001E04FF480706860D5E90021AE
:100C7000206803EA91131844036B01F01F014FF041
:100C80001F0C0CFA01FCC2F3846223EA0C038A40B5
:100C900013430363206802F0ABFF8246206802F032
:100CA000A3FF5AEA00001DD1AA682968206802F053
:100CB000AFFF20686969C268C2F3C1025200914067
:100CC0002A69042A0FD000EB82002B68026EDFF83D
:100CD000FCC203F0F84302EA0C020B431A4342F051
:100CE0000041016672E0002102F078FF40032068B5
:100CF0004FF0000172D002F071FF90FAA0F0B0FA4C
:100D000080F1286842036ED090FAA0F0B0FA80F02B
:100D1000814204D100221146206802F088FF01219F
:100D2000206802F05BFF400320684FF001015DD0B6
:100D300002F054FF90FAA0F0B0FA80F12868420364
:100D400059D090FAA0F0B0FA80F0814204D100228C
:100D50000121206802F06BFF0221206802F03EFFB3
:100D6000400320684FF0020148D002F037FF90FAAC
:100D7000A0F0B0FA80F12868420344D090FAA0F0C5
:100D8000B0FA80F0814204D100220221206802F0F2
:100D90004EFF0321206802F021FF400320684FF03E
:100DA000030133D002F01AFF90FAA0F0B0FA80F1FC
:100DB000286842032FD090FAA0F0B0FA80F0814268
:100DC00004D100220321206802F031FF20688168ED
:100DD00011F0010F22D0ACE000E004E002F0FEFED2
:100DE000C0F384618DE7C0F3846091E702F0F6FE02
:100DF000C0F38461A2E7C0F38460A6E702F0EEFED0
:100E0000C0F38461B7E7C0F38460BBE702F0E6FE9D
:100E1000C0F38461CCE7C0F38460D0E72A7B296803
:100E200050F8B03FC1F3120C23EA0C0302F0180C87
:100E3000674A22FA0CF20A4013430360E968494505
:100E400077D1286841031CD090FAA0F1B1FA81F162
:100E5000491C01F01F0109294FEA403132D800290D
:100E600012D000BF90FAA0F1B1FA81F101F10101B5
:100E700001F01F0106FA01F609D100BFC0F3846139
:100E800009E0C0F38461E3E7C0F38461EEE790FA20
:100E9000A0F1B1FA81F101F1010101F01F0146EA6F
:100EA000816102D1C0F3846003E090FAA0F0B0FA4F
:100EB00080F000F1010000F01F0000EB400041EA6B
:100EC000005132E000290ED090FAA0F1B1FA81F180
:100ED00001F1010101F01F0106FA01F606D100BF80
:100EE000C0F3846106E0C0F38461F1E790FAA0F1F9
:100EF000B1FA81F101F1010101F01F0146EA8161BE
:100F000002D1C0F3846003E090FAA0F0B0FA80F060
:100F100000F1010000F01F002E4A00EB400002EB40
:100F2000005041EA000141F00071AA68206802F017
:100F30006FFE29482A6802423FF47AAE274881684A
:100F4000274E284B284D01F0E071B2421DD10E0210
:100F50001BD422689A4202D0AA427FF469AE82680A
:100F600041F4000122F0E0720A4382601F482049E8
:100F70000068B0FBF1F0401C00EB4000800000E096
:100F8000401E00900028FBD152E61A4EB24209D111
:100F9000CE0107D422689A4201D0AA42F4D141F08E
:100FA00080710AE06FF00045EA42EDD14A02EBD4CD
:100FB00022689A42E8D141F48001826822F0E0720E
:100FC0000A43826034E6000000007F4000F0FF0327
:100FD000FFFF0700000020FE00000880000304500F
:100FE000000052C7000004500002045050000020CE
:100FF000400D0300000084CB18BCBDE8E08F7047B3
:1010000070477047F8B54FF0000504002E46009574
:1010100002D0606D10B107E00120F8BD204600F05D
:10102000D7F8A66584F8506020688168C1F34071E4
:1010300019B181685C4A1140816020688168C1F300
:10104000007189B98168594A114041F0805181602D
:10105000574858490068B0FBF1F04000801C00E0A0
:10106000401E00900028FBD120688168C1F3007108
:1010700041B9616D41F010016165A16D41F001015F
:10108000A165012502F0B4FD616DC90600D430B13F
:10109000606D40F01000606501252846F8BD606D68
:1010A00020F4807040F0020060652068806810F0D5
:1010B000010F15D140488068404900F0010089685F
:1010C00001F0010108433E49896801F0010108432C
:1010D00006D13C4960688A6822F47C1202438A6027
:1010E000E168606B627E0843A16841EA42310843CF
:1010F00094F8201040EA0140012904D1A18C324A21
:1011000002EB41410843A16A29B101F47071E26A1E
:10111000014342EA01002168CA682C4B1A4002438D
:10112000CA60206802F064FD0646206802F05CFD9B
:10113000304315D1207E94F83010800340EA4100FE
:101140002168CA6844F202039A430243CA6094F8D1
:10115000380001280CD02068016921F001010161EB
:10116000206901282068016B21F00F0111D013E0E4
:10117000D4E90F010843D4E911121143084321684F
:101180000A6940F2FC739A43104340F00100086181
:10119000E6E7E269521E11430163606D20F0020030
:1011A00040F00100606578E7C0FFFF5FC0FFFF7F90
:1011B00050000020400D03000000045000010450C6
:1011C00000020450000304500000FEFF07C0F0FFBF
:1011D00070B586B0064614216846FFF7AEF81C4984
:1011E0003068884231D11B49C86C40F40050C86453
:1011F000C86C00F400500590C86C40F00400C8644E
:10120000C86C002500F0040005900C2000900B2015
:10121000CDE901056946104800F0ECF9104C0F4883
:10122000C4E900058020A560C4E903508000606126
:101230008000A0612020C4E90705204600F042F9A3
:1012400008B1FFF75BFCF464A66206B070BD000055
:10125000000004500010024000080048080002404E
:101260007C0300202DE9F0410446394817468846A2
:10127000806800F01F05206802F0BAFC002864D1E5
:1012800094F85000012860D0012084F850003149C2
:101290002068884201D1012000E00020401E284241
:1012A0004FF0000605D0052D03D0092D01D00120F7
:1012B00003E02046FFF77EFB18B184F85060BDE8DC
:1012C000F081606D40F60161884340F48070606594
:1012D00021492068884201D1204900E0014681422D
:1012E00000D01DB9606D20F480106065606DC00491
:1012F00004D5A06D20F00600A06500E0A665E16CB5
:101300001748C862E16C17480863E16C16484863E7
:1013100021681C20086084F850602068416841F012
:10132000100141602068C16841F00101C16021687D
:101330003B4642464031E06C00F024F921688A685F
:101340000A4B1A40121D8A60B9E70220B7E7000075
:101350000003045000020450000104500000045037
:1013600029090008AB09000891090008C0FFFF7FA8
:1013700010B590F825100022022905D00421C16380
:1013800080F82420012010BD01680B6823F00E03B3
:101390000B6001680B6823F001030B6090F84410A8
:1013A000046C01F01C03012101FA03F3636080F86F
:1013B000251080F82420104610BD10B590F8251097
:1013C0000024022903D00421C16301241AE001682A
:1013D0000A6822F00E020A6001680A6822F001021F
:1013E0000A6090F84410036C01F01C02012101FA1C
:1013F00002F25A6080F82510002180F82410816BD9
:1014000001B18847204610BDF0B4016C0C6801683A
:101410000D6890F8442002F01C06042202FA06F33C
:10142000234211D06B070FD50B689B0603D40B68C2
:1014300023F004030B6090F8441001F01C018A4073
:10144000016C4A60016B1DE0022303FA06F7274294
:101450004FF0000C4FF0010218D0AF0716D50C6802
:10146000A40605D40C6824F00A040C6080F825203A
:1014700090F8441001F01C018B40016C4B6080F827
:1014800024C0C16A00291AD0F0BC08470823B34021
:10149000234214D02B0712D50B6823F00E030B60E8
:1014A00090F84410036C01F01C0102FA01F159603C
:1014B000C26380F8252080F824C0416BE2E7F0BCCD
:1014C0007047000070B568B12B4C036814212B4A9B
:1014D000A34209D22A4C1C44B4FBF1F18900C0E9B3
:1014E00010210BE0012070BD234C64421C44B4FB6E
:1014F000F1F189004164204908390164022180F832
:1015000025101C6847F6F0718C43D0E90215294379
:10151000D0E904563543294385692943C5692943E0
:10152000056A2943214319608168B1F5804F19D0BC
:10153000036C0F21934202D152F8A83F02E00E4AF9
:10154000A032136890F8444004F01C04A1408B437F
:10155000136090F84430416803F01C03994013680D
:10156000194311600021C163012280F8252080F811
:101570002410084670BD000008040240000002402C
:10158000F8FFFDBF70B5044690F82400002501283F
:101590000CD0012084F8240094F825600020012E4E
:1015A00006D084F824000225284670BD022070BDB4
:1015B000022684F82560E0632068066826F00106AC
:1015C00006602046FFF782FA206B00282068016839
:1015D00002D041F00E0106E021F004010160206814
:1015E000016841F00A0101602068016841F00101D1
:1015F0000160D9E72DE9F04FDFF8EC9100220127D7
:10160000A9F1040B85B003254FF00F0C09F1040A72
:10161000ABF1040EE0E000BF07FA02F416EA04039F
:101620007ED00E7906F00306012E01D0022E1FD1C6
:1016300086680096560005FA06F80496009E26EA8B
:1016400008060096D1F80C80049E08FA06F8009E61
:1016500048EA0608C0F80880466891F80480A64366
:10166000C8F3001808FA02F848EA0608C0F804802F
:10167000D1F804806FEA0806B6070AD1C66AA64305
:10168000C8F3C00494403443C4620C79E443A40713
:101690000AD0C4684FEA420805FA08F6B4438E68D7
:1016A00006FA08F62643C6600C7904F00304022CFF
:1016B00011D1D40800EB84060296D6F82080540796
:1016C000E60E0CFA06F428EA04080C69B440029EFF
:1016D00044EA0804346204685600029605FA06F6E5
:1016E000B4430E7906F00308029E08FA06F848EAA9
:1016F0000408C0F800804C6814F4403F6BD03B4CA9
:10170000266E46F001062666246E22F0030604F0DB
:1017100001040094364C34440294A468960700E017
:1017200059E04FEA16780CFA08F6B443B0F1904F3E
:1017300004D0304EB04203D101261BE0002619E050
:101740002D4EB04201D1022614E02C4EB04201D100
:1017500003260FE02A4EB04201D104260AE0294EAA
:10176000B04201D1052605E0274EB04201D1062640
:1017700000E0072606FA08F62643029CA660D9F880
:1017800000404E46D1F804809C435FEAC82800D54B
:101790001C433460DAF800405646D1F804809C437C
:1017A0005FEA882800D51C433460DBF800405E46C1
:1017B000D1F804809C435FEA883800D51C4334602C
:1017C000DEF800407646D1F804809C435FEAC838D2
:1017D00000D51C433460521C0B681E46D3407FF476
:1017E0001BAF05B000F012B8080401400010024021
:1017F000000001400004004800080048000C0048B8
:1018000000100048001400480018004830BCBDE833
:10181000C08F0AB18161704781627047014880685A
:10182000704700004400002002488168027811449B
:10183000816070474400002010B50024032000F0B0
:101840008DF8002000F008F808B1012401E000F054
:101850003DF8204610BD000000B5014687B00022CB
:10186000192000F05BF8192000F04AF81348016EC7
:1018700041F400610166006E05A900F40060069065
:10188000684600F033FB00F063FB0D490D4AB0FBE6
:10189000F1F10D48491E0260416040F2E73200213B
:1018A000C0E90321816001F00BF810B1012007B0FD
:1018B00000BD054801F068F8F9E70000001002409B
:1018C00040420F00002C0140E80600200B4882B087
:1018D000016E41F001010166016E01F0010100910C
:1018E000816D41F080518165806D002200F0805053
:1018F00000900F21901E02B000F010B800100240BE
:10190000002809DB00F01F020121914040098000FE
:1019100000F1E020C0F8001170470000F0B40E4B59
:101920001B680C46C3F30223C3F10705042D00D93D
:101930000425191D072901D2002300E0DB1E012622
:1019400006FA05F1491E214099409E40761E164038
:101950003143F0BC03F04EBB0CED00E0064900F053
:10196000070208684FF6FF03184040EA0220034AC6
:1019700010430860704700000CED00E00000FA051D
:101980001649B0F5007F0868C0F3412009D002284D
:1019900005D0086820F4C06040F480600860002032
:1019A00070470128FBD0086820F4C06040F4007044
:1019B00008600B483222006850430A4AB0FBF2F03C
:1019C000401C00E0401E4A69520501D50028F9D1AB
:1019D00048694005E3D503207047000000700040CF
:1019E0005000002040420F000248006800F4C06030
:1019F00070470000007000402DE9F84F04460027B2
:101A00000088E54D3E46010504F1200B1DD5606EB2
:101A100078B1B0F5800F11D0B0F5000F04D0B0F55B
:101A2000400F22D001270FE0E86840F48030E860E2
:101A30001BE00021201D02F01FFB03E0002158469F
:101A400002F0B0FB070010D03E462088C00426D527
:101A5000A06EC0B1B0F1807F1AD0B0F1007F0DD080
:101A6000B0F1407F19D0012718E0D5F88800616EE9
:101A700020F440000843C5F88800E6E7E86840F431
:101A80008030E86009E00021201D02F0F5FA03E053
:101A90000021584602F086FB0746F7B13E46206813
:101AA00080033AD5A86D4FF00008C00009D4A86D96
:101AB00040F08050A865A86D4FF0010800F08050FC
:101AC0000090DFF8D8A2DAF8001041F48071CAF86B
:101AD0000010FFF7A3FE814610E0D5F88800A16E44
:101AE00020F040700843C5F88800D8E7FFF796FE5D
:101AF000A0EB0900022801D9032705E0DAF800006D
:101B0000C005F3D5002F7CD04FEA0706B8F1000FCF
:101B100003D0A86D20F08050A8652078C00707D0BA
:101B2000D5F88800A16B20F003000843C5F88800B1
:101B30002078800707D5D5F88800E16B20F00C00ED
:101B40000843C5F888002078400707D5D5F88800F5
:101B5000216C20F030000843C5F888002078000789
:101B600007D5D5F88800616C20F0C0000843C5F89F
:101B700088002078C00607D5D5F88800A16C20F42D
:101B800040700843C5F888002078800607D5D5F84E
:101B90008800E16C20F440600843C5F88800208884
:101BA000800507D5D5F88800E16D20F44020084372
:101BB000C5F888002088400507D5D5F88800216E33
:101BC00020F440100843C5F888002078400607D567
:101BD000D5F88800216D20F440500843C5F88800EE
:101BE0002078000607D5D5F88800616D20F44040C4
:101BF0000843C5F888002088C00509D5D5F88800B5
:101C000000E01CE0A16D20F440300843C5F88800D6
:101C100020884FF0006780044FF080684FD5D5F8DA
:101C20008800E16E20F040600843C5F88800E06E4F
:101C3000B8423CD1E86840F48010E8603FE0D5F855
:101C4000900010F4407015D0D4F88410814211D067
:101C5000D5F89000D5F8901020F4407041F4803110
:101C6000C5F89010D5F8901021F48031C5F8901087
:101C7000C5F89000C00710D0FFF7D0FD074641F22D
:101C8000883906E0FFF7CAFDC11B494501D9032683
:101C90003CE7D5F890008007F4D5D5F89000D4F84B
:101CA000841020F440700843C5F890002EE74045AA
:101CB00005D10121201D02F0DFF900B106462068A0
:101CC000000317D5D5F88800216F20F04060084345
:101CD000C5F88800206FB84204D1E86840F480104D
:101CE000E86007E0404505D10121201D02F0C4F95C
:101CF00000B106462068400317D5D5F88800616F0B
:101D000020F040600843C5F88800606FB84204D1F5
:101D1000E86840F48010E86007E0404505D1012103
:101D2000201D02F0A9F900B10646208840041AD50A
:101D3000D5F88800A16F20F040500843C5F888000E
:101D4000A06FB0F1805F03D0B0F1005F05D00AE072
:101D50000221201D02F090F903E00221584602F012
:101D600021FA00B106462088000407D5D5F888007E
:101D7000E16F20F080400843C5F888002068C00368
:101D800007D555F8880FD4F8801020F0004008439C
:101D90002860304600F004B8001002400070004097
:101DA00018BCBDE8E08F00002DE9F0470F460500A4
:101DB0006BD0494E306800F00700B84209D2306855
:101DC00020F0070038433060306800F00700B84268
:101DD0005BD12878414C80070AD5A868A16801F03A
:101DE000F001884204D9A16821F0F0010143A1600B
:101DF0002878C0072CD06868032811D0022812D098
:101E0000216898B1490500293FDAA16821F0030152
:101E10000143A160FFF702FD804641F2883910E0DE
:101E200021688901EFE721688903ECE78907EAE780
:101E3000FFF7F4FCA0EB0801494502D90320BDE8F7
:101E4000F087A068696800F00C00B0EB810FEFD15B
:101E5000287880070AD5A868A16801F0F0018842B7
:101E600004D2A16821F0F0010143A160306800F0C4
:101E70000700B8420BD9306820F0070038433060C3
:101E8000306800F00700B84201D00120D7E7287879
:101E9000400705D5A068E96820F4E0600843A06029
:101EA0002878000706D5A068296920F4605040EA28
:101EB000C100A06000F05EF8A168094AC1F30311F7
:101EC000515C01F01F01C8400649086006480068DF
:101ED000BDE8F047FFF7C0BC002002400010024000
:101EE00000F8000850000020480000200F22026087
:101EF0000C4A936803F003034360936803F0F00314
:101F00008360936803F4E063C36092684FF4E06316
:101F100003EAD20202610448006800F0070008608A
:101F200070470000001002400020024005480649AA
:101F300000688968054AC1F30221515C01F01F0164
:101F4000C8407047500000200010024040F80008D0
:101F50000548064900688968054AC1F3C221515CF9
:101F600001F01F01C84070475000002000100240DF
:101F700040F8000870B52549002318468A68CC68E7
:101F800012F00C0204F00306214C4FEA640509D05C
:101F90000C2A05D0042A32D0082A00D1284670BD68
:101FA000012E10D10B681B0704D4D1F89430C3F371
:101FB000032302E00B68C3F30313164E56F82330D5
:101FC000DAB10C2AEBD1C86800F00300022818D05F
:101FD000032818D01846CA68CB68C2F30212C3F3AC
:101FE00006234343521CB3FBF2F2C868C0F34160BE
:101FF000401C4000B2FBF0F070BD184670BD20469A
:1020000070BD2046E7E72846E5E7000000100240E3
:102010000024F40010F800082DE9F84304006FD004
:10202000FD4DA86800F00C06E86800F00307207872
:10203000C00664D576B10C2E01D1012F0AD0A0695B
:10204000002828687AD040F001002860FFF7E6FBFE
:1020500080465DE02868800702D5A0690028DED0B0
:10206000216A2868000703D5286800F0F00004E022
:10207000D5F89400F02202EA1010814216D90846E1
:1020800002F014F900283BD1286840F008002860CD
:102090002868216A20F0F000084328606868E16938
:1020A00020F47F4040EA0120686016E0286840F094
:1020B000080028602868216A20F0F00008432860A2
:1020C0006868E16920F47F4040EA0120686026B931
:1020D000206A02F0EBF80028D5D1FFF74BFFA96882
:1020E000CE4AC1F30311515C01F01F01C840CC4935
:1020F0000860CC480068FFF7AFFB00287ED12EE0D7
:10210000CAE000BFFFF78AFBA0EB0800022876D8E0
:1021100028688007F6D5286840F0080028602868FD
:10212000216A20F0F000084328606868E16920F423
:102130007F4040EA0120686011E0FFE720F00100E5
:102140002860FFF76BFB804606E000BFFFF766FBE9
:10215000A0EB08000228DAD828688007F6D4207897
:10216000C00740D0082E18D00C2E01D1032F14D058
:102170006068B0F5803F17D0B0F5A02F286817D061
:1021800020F480302860286820F48020286060686F
:10219000E0B1FFF743FB804614E02868800322D5B6
:1021A0006068002878D01EE0286840F48030EDE7B1
:1021B00040F480202860F7E7FFF730FBA0EB080031
:1021C0006428A4D828688003F6D50CE0FFF726FB26
:1021D000804605E0FFF722FBA0EB0800642896D8B4
:1021E00028688003F6D4207880073BD5042E11D0D0
:1021F0000C2E01D1022F0DD0E06801E086E1D6E07F
:10220000002828681ED040F480702860FFF706FB85
:1022100007460CE0286840050CD5E0680028C1D0CE
:1022200008E000BFFFF7FAFAC01B022893D828681D
:102230004005F7D56868217C20F0F85040EA01603D
:1022400068600FE020F480702860FFF7E7FA074627
:1022500005E000BFFFF7E2FAC01B0228B1D82868EA
:102260004005F7D42078000729D560690028D5F803
:10227000940012D040F00100C5F89400FFF7CEFAA8
:10228000074604E0FFF7CAFAC01B022899D8D5F820
:1022900094008007F6D512E000E120F00100C5F8B7
:1022A0009400FFF7BBFA074605E000BFFFF7B6FA58
:1022B000C01B02287BD8D5F894008007F6D420787C
:1022C000400766D5A86D0027C00008D4A86D40F06F
:1022D0008050A865A86D012700F0805000905248FA
:1022E0000168C90512D40168814641F4807101601A
:1022F000FFF794FA804605E0FFF790FAA0EB08009C
:10230000022854D8D9F80000C005F5D5A0680128E6
:1023100016D00528D5F8900017D020F00100C5F898
:102320009000D5F8900020F0040000BFC5F89000A0
:10233000A06841F28839C0B1FFF770FA80460FE01B
:10234000D5F8900040F00100F0E740F00400C5F837
:102350009000F5E7FFF762FAA0EB0801494526D89F
:10236000D5F890008007F5D50EE0FFF757FA8046C4
:1023700006E000BFFFF752FAA0EB0801494516D866
:10238000D5F890008007F5D41FB1A86D20F08050DB
:10239000A865A06AF0B302280AD00C2E7ED0286867
:1023A00020F080702860FFF739FA0446B0E0ACE016
:1023B000E868E26A00F00301914229D1216B00F044
:1023C000700209011039914222D1626B00F4FE4182
:1023D000B1EB022F1CD1A26B00F40031072A01D00F
:1023E000012200E00022914212D1A18F00F4C0022C
:1023F00049084905A1F50011914209D194F840100E
:1024000000F0C06049084906A1F1007181425ED028
:102410000C2E0BE072E000000010024000F80008F3
:1024200050000020480000200070004079D028684B
:10243000400176D42868C00073D4286820F08070EA
:102440002860FFF7EBF9064605E000BFFFF7E6F965
:10245000801B022859D828688001F7D4D4E90B01E1
:102460006FF00F0202EB01110843A18F52044908DB
:1024700002EB4151626B41EA0221084394F840109B
:102480004FF07E42490802EB41610843A16B090904
:1024900040EA4140E968244A114000E041E0084335
:1024A000E860286840F080702860E86840F080703C
:1024B000E860FFF7B3F9044605E000BFFFF7AEF9A7
:1024C000001B022821D828688001F7D527E028685A
:1024D000800124D4286840F080702860E86840F0CB
:1024E0008070E860FFF79AF9044604E0FFF796F978
:1024F000001B022809D828688001F7D50FE000BF2B
:10250000FFF78CF9001B022802D90320BDE8F883ED
:1025100028688001F4D4E86804490840E860002095
:10252000F4E70120F2E700008C809DF9FCFFEEFE4D
:1025300070B5040009D0606A002540B1256165616D
:10254000A56294F85D0040B10CE0012070BD6068A8
:10255000B0F5827FF4D0E561F2E784F85C50204664
:1025600000F056F8022084F85D002068016821F030
:1025700040010160E1684FF4E062914201D900201E
:1025800001E04FF48050B1F5706F02D0914200D05D
:10259000A562A188228901F4827102F404421143E8
:1025A000227C02F002021143227D02F0010211435B
:1025B000228B02F400721143227F02F03802114391
:1025C00094F8202002F080021143228D02F4005280
:1025D000114322681160A169042202EA114194F8B2
:1025E000242000F4805002F01002114394F83420AB
:1025F00002F008021143A28902F470621143014300
:10260000206841602566012084F85D00002070BDCF
:1026100010B586B0044614216846FDF78EFE1349B6
:10262000206888421FD11248816D41F400418165C4
:10263000816D01F400410591C16C41F00401C16458
:10264000C06C694600F0040005904FF4E050009023
:1026500002200190002002900320039006200490A5
:102660000448FEF7C7FF06B010BD0000003C004064
:1026700000100240000800482DE9F84F044690F889
:102680005C0000271D461646894601280DD04FF0F4
:10269000010B84F85CB0FFF7C1F8804694F85D0048
:1026A000BA46012804D00227A4E0022000F0A8B80E
:1026B000B9F1000F74D0002E72D0032084F85D00B1
:1026C000C4F860A0C4F83890A687E687C4F840A094
:1026D000A4F844A0A4F846A0C4F850A0C4F84CA0A4
:1026E000A068B0F5004F09D12068016821F04001D1
:1026F00001602068016841F4804101602068016840
:10270000490603D4016841F040010160E068B0F57A
:10271000E06F606823D908B1012E1CD1A06B21683D
:102720000088C86006E020688168890709D5A16B28
:102730000988C160A06B801CA063E08F401EE08709
:1027400009E0FFF76BF8A0EB0800A84202D3681C71
:1027500001D046E0ADB3E08F0028E4D136E008B107
:10276000012E30D1E08F0128A06B03D921680088A9
:10277000C8600FE021680078087314E0E08722E069
:1027800020688168890714D5E18F0129A16B08D9D8
:102790000988C160A06B801CA063E08F801EEDE7FC
:1027A00027E009780173A06B401CA063E08F401EF6
:1027B000E4E7FFF733F8A0EB0800A84202D3681C57
:1027C00001D00EE06DB1E08F0028D9D142462946F4
:1027D000204601F0A9FD08B120202066A06810B1B4
:1027E00005E0032706E02068C16880680090206E3D
:1027F00000B1012784F85DB084F85CA0384655E745
:1028000018BCBDE8E08F4FF0E0210428086903D030
:1028100020F004000861704740F00400FAE77047B8
:1028200070477047F0B590F83C20012A39D0012458
:1028300080F83C40022280F83D2002685368956889
:10284000194E1A4FB24201D0BA4204D123F4700C8F
:102850004B6843EA0C0323F0700C0B6843EA0C034B
:1028600053600268B24210D0B2F1804F0DD0104BCD
:102870009A420AD00F4B9A4207D00F4B9A4204D08B
:10288000BA4202D00D4B9A4204D1896825F08003E8
:102890001943916080F83D40002180F83C100846C3
:1028A000F0BD0220F0BD0000002C014000340140CA
:1028B0000004004000080040000C004000400140BF
:1028C00010B5040003D094F83D0010B107E00120DA
:1028D00010BD002084F83C00204600F023F80220C0
:1028E00084F83D00211D206801F0E4FE012084F8F9
:1028F000480084F83E0084F83F0084F8400084F8E3
:10290000410084F8420084F8430084F8440084F8CD
:10291000450084F8460084F8470084F83D00002014
:1029200010BD000008B5154A0168154891420ED146
:10293000816D41F010018165806D002200F0100072
:10294000009005213620FEF7E9FF362010E00D4A01
:10295000914211D1816D41F020018165806D00228D
:1029600000F02000009005213720FEF7D7FF372028
:10297000BDE80840FEF7C4BF08BD000000100040DD
:10298000001002400014004090F83D10012901D0D1
:1029900001207047022180F83D100168CA6842F0AA
:1029A0000102CA6000681149884211D0B0F1804F1D
:1029B0000ED00F4988420BD00E49884208D00E49EC
:1029C000884205D00D49884202D00D49884207D17E
:1029D00081680C4A1140062906D0B1F5803F03D02A
:1029E000016841F00101016000207047002C0140A6
:1029F0000004004000080040000C0040003401408A
:102A000000400140070001000168CA6822F001028D
:102A1000CA6001680A6A41F211131A4207D10A6AB0
:102A20009B101A4203D10A6822F001020A600121B8
:102A300080F83D1000207047704770B5044600686C
:102A400001694FF00005C943890715D4C168C9431E
:102A5000890711D4E91E016101202077206880696F
:102A60008007204602D0FFF7E7FF04E000F0A7F858
:102A7000204600F0A5F8257720680169C943490779
:102A800017D4C168C943490713D46FF00401016129
:102A9000022020772068806910F4407F204602D011
:102AA000FFF7CAFF04E000F08AF8204600F088F83B
:102AB000257720680169C943090716D4C168C9434D
:102AC000090712D46FF00801016104202077206803
:102AD000C0698007204602D0FFF7AEFF04E000F097
:102AE0006EF8204600F06CF8257720680169C9432C
:102AF000C90617D4C168C943C90613D46FF01001C1
:102B00000161082020772068C06910F4407F2046CA
:102B100002D0FFF791FF04E000F051F8204600F0EA
:102B20004FF8257720680169C943C90708D1C168F2
:102B3000C943C90704D1891E0161204600F042F84B
:102B400020680169C943090609D4C168C943090657
:102B500005D46FF0800101612046FFF761FE206817
:102B60000169C943C90509D4C168C943090605D427
:102B70006FF4807101612046FFF751FE2068016902
:102B8000C943490609D4C168C943490605D46FF051
:102B900040010161204600F025F820680169C94321
:102BA00089060BD4C168C943890607D46FF0200198
:102BB00001612046BDE87040FFF733BE70BD70472D
:102BC0007047000010B5044602F0CCFE04492068AE
:102BD000884203D1BDE81040FEF726BE10BD0000BC
:102BE000002C014070477047704770472DE9F04155
:102BF00002680446D0691168936840F60F052842C0
:102C00004FF0000505D186067ED58E067CD5616E17
:102C10001BE1994F03F001060F40374374D0C707FB
:102C200009D0CF0507D501271762D4F8802042F0DC
:102C30000102C4F8802082070AD5DA0708D0276885
:102C400002223A62D4F8802042F00402C4F88020C4
:102C500042070AD5DA0708D0236804221A62D4F89A
:102C6000802042F00202C4F8802002070CD501F057
:102C70002002324308D0236808221A62D4F8802048
:102C800042F00802C4F8802002050BD54A0109D59C
:102C900023684FF400621A62D4F8802042F02002C8
:102CA000C4F88020D4F88020002A35D0800605D5CD
:102CB000880603D5616E09B120468847D4F88000A4
:102CC00021688968490602D410F0280F26D02046D2
:102CD00001F0ECFD2068806840061AD520680830B5
:102CE00050E8001F21F0400140E80012002AF5D111
:102CF000206F70B161498163206FFEF75EFB002891
:102D00000AD0206F816B01E00EE02046BDE8F04163
:102D100008472046FFF769FFBDE8F0812046FFF72E
:102D200064FFC4F88050F7E7276E2026012F7BD17F
:102D3000C70679D5CF0677D5102010622068806845
:102D4000400641D5216F086840680004000CE3D0BC
:102D5000B4F858208242DFD9A4F85A000868006805
:102D600080062AD4206850E8001F21F4807140E8D2
:102D70000012002AF6D12068083050E8001F21F028
:102D8000010140E80012002AF5D12068083050E81F
:102D9000001F21F0400140E80012002AF5D1E6674B
:102DA0002566216851E8000F20F0100041E800027C
:102DB000002AF6D1206FFEF7DBFAB4F85800B4F819
:102DC0005A10401A81B22AE0B4F85800B4F85A10E8
:102DD000401A81B2B4F85A0000289DD000299BD037
:102DE000226852E8000F20F4907042E80003002BA4
:102DF000F6D12068083050E8002F22F0010240E8A8
:102E00000023002BF5D1E66725666566226852E847
:102E1000000F20F0100042E80003002BF6D12046FE
:102E2000FFF7E1FE78E7FFE7C70209D55B0207D5A8
:102E30004FF4801010622046BDE8F041FFF7D4BE89
:102E4000020606D50A0604D5A16E00297FF45DAFFF
:102E500062E74006E6D54806E4D52046026852E817
:102E6000001F21F0400142E80013002BF6D18667D5
:102E7000856600F0FFFA4FE720010004994800083A
:102E800010B5040002D0A06F10B107E0012010BD02
:102E9000002084F87400204600F026F82420A06763
:102EA0002068016821F001010160204601F0C2FDA7
:102EB0000128ECD0606A10B1204601F05BFC20686C
:102EC000416821F4904141602068816821F02A0125
:102ED00081602068016841F0010101602046BDE881
:102EE000104001F0ABBC0000F0B587B004461421DF
:102EF0006846FDF722FA4E48256800234D49032213
:102F000002244D4E854220D1C86D40F00100C865B5
:102F1000C86D00F001000590C86C40F00400C86462
:102F2000C86C029300F004000590CDE9002408204D
:102F3000CDE9032069463046FEF75CFB00220521FF
:102F40004620FEF7EBFC462026E0DFF8F0C007271E
:102F50004FF09040654523D10D6E45F480450D66D8
:102F60000D6E05F480450595CD6C45F00105CD64E9
:102F7000C96CCDE9023201F0010105914FF4C06145
:102F8000CDE9001404976946FEF734FB00220521C1
:102F90002520FEF7C3FC2520FEF7B2FC07B0F0BDEC
:102FA000DFF89CC065451FD18D6D45F400358D65FA
:102FB0008D6D05F400350595CD6C45F00105CD64AA
:102FC000C96CCDE9023201F0010105910C21CDE976
:102FD000001404976946FEF70DFB00220521262008
:102FE000FEF79CFC2620D7E716488542D6D1886D8F
:102FF00040F480208865886D00F480200590C86CBE
:1030000040F00400C864C86CCDE9023200F004004E
:1030100005903020CDE90004694604973046FEF75C
:10302000E9FA002205212720FEF778FC2720B3E7E4
:1030300000800040001002400008004800380140B5
:1030400000440040004800402DE9F84F0446C06F9E
:103050009A4616460D46202870D10DB306B394F853
:10306000740001286AD0012084F874004FF0000831
:10307000C4F880802221E167C4F860805834FEF7EC
:10308000CDFB24F8026B814624F852694FF480533B
:1030900054F80809FF21984208D122691AB11CE0AE
:1030A000012000F04DB840F2FF1116E07F2290B1F0
:1030B000B0F1805F14D0A4F85C8000BFB4F85C70FD
:1030C000984201D1206990B12E46002584F8748081
:1030D00007F0FF0825E0266936B9A4F85C10EDE793
:1030E000216909B13F21F8E7A4F85C20E6E7002652
:1030F000ECE74B46002220212046CDF800A001F04D
:1031000067FE08B10320CCE72068808C8EB100EA0E
:10311000080006F8010B00BFB4F85A00401EA4F8DE
:103120005A00B4F85A000028E3D12020E0670020BC
:10313000B7E7384025F8020BEEE7FFE70220B0E7DB
:1031400018BCBDE8E08F000030B4C36F202B20D145
:10315000E1B1DAB190F87430012B1AD0012380F874
:103160007430002303660C4C0368A3420BD05B68E9
:103170001B0208D5046854E8003F43F0806344E82C
:103180000035002DF6D130BC01F078BD012030BCF7
:1031900070470220FBE70000008000402DE9F0416D
:1031A000044602F0EFFB5D48844216D15C490120E1
:1031B00008705C48817810290FD1407803280CD121
:1031C000152258495848FDF79FF8584915200870AE
:1031D000012000F049FF00F011FF554920688842A6
:1031E00019D1012253495448FFF7AEFF514C5349BE
:1031F000241D651F62782270687860700D2A01D1E5
:103200000A280AD02A7888541820521CB2FBF0F100
:1032100000FB11202870BDE8F0812A780026885430
:103220008818032A467073D30878454F2B2804D09A
:103230004F286DD02B2803D06AE04878562803D059
:103240004878502839D063E08878452802D03D2856
:1032500020D05DE0C87852285AD10879532857D138
:103260004879492854D188794F2851D1C8794E28B6
:103270004ED1087A3D284BD1487A6422303810FB71
:1032800002F0C97A01EB810100EB4100A0F5F0707A
:1032900038803DE0C8788A79303800EBC00303EB12
:1032A0000010497902EB800001EB81014FF6F052EA
:1032B00002EB41010844F8802AE08878482827D1A9
:1032C000C8783D2824D1002004226FF02F0C0BE099
:1032D0002E2B07D00D2B05D000EB80000CEB40000F
:1032E000184480B2521CD2B28B1813F8013C0D2B3B
:1032F00002D08B5C0A2BEBD1FDF70EF99FED111B71
:1033000053EC112BFDF799F8FDF726F9C7F80200E9
:103310002E7026706670A6707DE70000C403002042
:103320001C000020C00B0020400C002040000020AA
:10333000003801403900002048040020E70B00203D
:10334000B40B002000000000000059402DE9F843B4
:103350000446806F1F4616460D4620284FD1CDB13A
:10336000C6B194F87400012849D0012084F8740093
:103370004FF00008C4F880802120A067FEF74EFAC5
:10338000A4F850608146A4F85260A068B0F5805F50
:1033900003D004E00120BDE8F883206928B12E465F
:1033A0005FF0000584F8748010E00026FAE78021C1
:1033B000204601F00DFDB8B9C6B116F8010B216821
:1033C0000885B4F85200401EA4F85200B4F8520028
:1033D0004B464FF0000200970028E8D14FF0400123
:1033E000204601F0F5FC30B10320D4E735F8020B9C
:1033F000C0F30800E3E72020A0670020CBE702200D
:10340000C9E70000836F202B2DD1B9B1B2B190F87C
:103410007430012B27D0012380F87430C164A0F8E8
:103420005020A0F8522000218166C0F8801021228F
:1034300082678268B2F5805F02D003E001207047A6
:10344000026972B1094A826680F87410026852E813
:10345000001F41F0800142E80013002BF6D100204C
:103460007047034AEFE7022070470000854D0008CF
:10347000354D00080068094B0121094A984201D1E5
:1034800011717047074B984201D191707047064BFC
:103490009842FBD1D17005A001F09CBD00380140DD
:1034A00038000020004800400080004055617274E0
:1034B0004C5052656164790D0A000000FEE700007F
:1034C00070B586B014216846FCF737FF1348C16C0D
:1034D00041F00201C164C06C114E00F00200059081
:1034E00001224FF440713046FEF793F901244FF466
:1034F0008070CDE90004022569463046CDE90245D9
:10350000FEF778F86002CDE9000469463046CDE95F
:103510000245FEF76FF806B070BD000000100240D3
:10352000000400482DE9F04107461C4615460E46AA
:103530002A2000F023FB380A00F02EFBF8B200F03E
:103540002BFB280A00F028FBE8B200F025FB2B201B
:1035500000F014FB300A00F01FFBF0B200F01CFB7F
:10356000200A00F019FBE0B200F016FBBDE8F041C4
:103570002C2000F003BB000070B5040AC5B2EF2395
:1035800000211A460846FFF7CDFF0F4900204FF4EF
:10359000107200BF01F8104001EB4003401C80B2E4
:1035A0005D709042F6D30122D1020848FEF731F94E
:1035B00000244FF490652946034800F0E9F9641CA3
:1035C000A4B2642CF7D370BD340700200008004873
:1035D0002DE9FE4F4FF00008141A47464546994220
:1035E0001FD1FFF79FFF324932480A88110AD2B231
:1035F00006E000BF00F8151000EB45036D1C5A7083
:10360000AC42F7D80122D1022B48FEF702F94FF65F
:10361000FF7000EA440103B0264800F04FB800F004
:10362000B7B9CDE900105E1A4FF0FF30002C02DD73
:103630004FF0010102E003D14FF000018B4602E0A0
:103640008346C4F10004002E02DD4FF0010002E0C9
:1036500003D14FF00000824602E08246C6F1000628
:10366000B44201DD254600E03546681C4FF00009F4
:10367000029018E0009881B2019880B200F026F81C
:10368000A0443744A84504DD0198A8EB0508584438
:103690000190AF4203DD00987F1B5044009009F178
:1036A00001001FFA80F902998945E3DD00F00BB8AB
:1036B00018000020340700200008004830BCBDE896
:1036C000C04FFFF7ACBF1EBCBDE8E08F10B50B4686
:1036D0000246FFF727FF03480088BDE8104000F0CE
:1036E00069BA0000180000202DE9F05F141A5F1A73
:1036F000641C7F1C7C43002564004FF490680A9E84
:10370000444502D9A4F590654446FFF70BFF370AFC
:10371000DFF85090DFF850B0F6B24FF4006A0020A6
:10372000494606E001F8107001EB4002401C56705B
:1037300080B2B0EB540FF5D3012251465846FEF744
:1037400068F8A1B2074800F023F9002D07D04545DD
:1037500002D9A5F59065E2E72C460025DFE700F0E9
:1037600005B80000340700200008004830BCBDE860
:10377000C09F000030B51C4887B0C16C41F0040107
:10378000C164C06C4FF4386400F00400059001205F
:10379000CDE9004002900220144D0390694628466E
:1037A000FDF728FF002221462846FEF732F80022C6
:1037B0004FF400712846FEF72CF80022802128469D
:1037C000FEF727F84FF48074002221462846FEF7C2
:1037D00020F8782002F046FA012221462846FEF71A
:1037E00018F807B030BD0000001002400008004883
:1037F00010B5FFF7BFFF782002F034FA112000F077
:10380000BDF9782002F02EFA362000F0B7F900203A
:1038100000F0C2F93A2000F0B1F9652000F0BCF9DF
:10382000B22000F0ABF90C2000F0B6F90C2000F04B
:10383000B3F9002000F0B0F9332000F0ADF93320E7
:1038400000F0AAF9B72000F099F9722000F0A4F96D
:10385000BB2000F093F93D2000F09EF9C02000F05D
:103860008DF92C2000F098F9C22000F087F9012092
:1038700000F092F9C32000F081F9192000F08CF9D2
:10388000C42000F07BF9202000F086F9C62000F06B
:1038900075F90F2000F080F9D02000F06FF9A42016
:1038A00000F07AF9A12000F077F9E02000F066F945
:1038B000D02000F071F9042000F06EF90D2000F026
:1038C0006BF9112000F068F9132000F065F92B2046
:1038D00000F062F93F2000F05FF9542000F05CF93D
:1038E0004C2000F059F9182000F056F90D2000F096
:1038F00053F90B2000F050F91F2000F04DF9232060
:1039000000F04AF9E12000F039F9D02000F044F944
:10391000042000F041F90C2000F03EF9112000F0E5
:103920003BF9132000F038F92C2000F035F93F2046
:1039300000F032F9442000F02FF9512000F02CF96A
:103940002F2000F029F91F2000F026F91F2000F099
:1039500023F9202000F020F9232000F01DF9212078
:1039600000F00CF9292000F009F9EF2300211A4694
:103970000846FFF7D7FD4FF6FF70FFF7FDFD012268
:10398000BDE8104080210148FDF743BF0008004812
:1039900000F0EAB82DE9F05F203AD7B21C46F022D9
:1039A000A2EB540282425BD3C4F1F0028A4257DB9D
:1039B0000A19521E93B200EB5402521E92B2FFF744
:1039C000B1FD3F4E102C1AD0202C18D00C2C49D011
:1039D000182C45D13B4907EB47004FF0300A002433
:1039E00001EB00194FEA060819F80460E00756D009
:1039F00004270025300654D5B8F8000053E06007CE
:103A000000D0012000EBD400610810FB01F000F0B1
:103A1000FF082D48002500EB071A00F5BE5000EB0B
:103A2000C71BB1461AE0102C09D0202C18D11BF866
:103A300005600027300605D5B9F8000004E01AF843
:103A40000560F6E7B9F8020000F0B4F870067F1CD4
:103A5000060EFFB2082FEDD36D1CEDB24545E2D343
:103A600000F036B8194807EB47014FF00C09002465
:103A700000EB8108002518F80470380601D530885D
:103A800000E0708800F096F878066D1C070EEDB225
:103A9000062DF2D3641CE4B24C45EBD3E0E70827D3
:103AA000A7E7B8F8020000F085F870066D1C060E56
:103AB000EDB2BD429ED3641CE4B2544594D3CFE72B
:103AC000180000203078000840720008CC6D000813
:103AD00030BCBDE8C09F2DE9F047044600F0FF0967
:103AE00010190D46DDE908A61FFA80F8581987B2AB
:103AF00010E0444503D305EB0A004C4685B2BD42B5
:103B00000DD2534629462046FFF744FF04EB5A00E6
:103B100084B2761C3278A2F120005E28E9D9BDE893
:103B2000F087000070B514460219049E1D46F02A65
:103B300017D84B19F02B14D85B1E521E9BB292B2B1
:103B4000FFF7F0FC0122D1020648FDF762FE6C434C
:103B50004FF6FF7000EA44013046BDE87040FFF7C1
:103B600017BF70BD000800480A4601464FF47A733B
:103B70000148FEF781BD0000D405002001B50022F8
:103B80004FF400610348FDF744FE01216846FFF74A
:103B9000FFFE08BD0008004801B50122D10204481B
:103BA000FDF737FE01216846FFF7F2FE08BD000071
:103BB0000008004808B500210091010A8DF80010A6
:103BC0008DF801000122D1020348FDF722FE0221F7
:103BD0006846FFF7DDFE08BD0008004800EB8100E5
:103BE000006E00F0F84070478068C0F3C000704776
:103BF0008068C0F3800070478068C0F38000704721
:103C0000C06810F4406F01D0002070470120704759
:103C1000042303EAD15310B518444369C1F3045196
:103C200007248C40A3438A401343436110BD00EB3B
:103C30008100016E21F000411143016670470000D0
:103C40000148FEF7D3BF0000C403002030B589B09F
:103C5000002406940794182168460894FCF76DFB2D
:103C600023482249042501604FF40021C0E90114D2
:103C700001214561C0E90341047641760222C26117
:103C800080F820408462C46280F83010446380F879
:103C90003840FDF7B7F908B1FCF730FF06A9144822
:103CA0000694FCF72DFF08B1FCF728FF114800909F
:103CB00006200190052002907F200594CDE90305A0
:103CC00069460B48FCF79AFF08B1FCF717FF0A4852
:103CD00000900C20019069460548FCF78FFF0028F2
:103CE00001D0FCF70BFF09B030BD0000000004500C
:103CF000180300200800900C1000C010094808B5F7
:103D0000816C41F001018164806C002200F00100AF
:103D1000009005210B20FDF701FEBDE808400B20B7
:103D2000FDF7EEBD0010024010B59CB01C221B49EF
:103D30006846FCF7E9FA0021684601F09FFF184C3D
:103D400016491C2220601C3107A8FCF7DDFA00216F
:103D500007A801F093FF114960601C2238310EA8BA
:103D6000FCF7D2FA00210EA801F088FF0B49A060F1
:103D70001C22543115A8FCF7C7FA002115A801F040
:103D80007DFFE060206802F02FFD606802F02CFDEE
:103D9000A06802F029FD1CB010BD00005C6D000899
:103DA0000400002010B586B014216846FCF7C5FA5F
:103DB0001548C16C41F08001C164C16C01F0800103
:103DC0000591C16C41F00401C164C16C01F00401B2
:103DD0000591C16C41F00101C164C06C0B4C00F055
:103DE00001000590002240212046FDF712FD4020F1
:103DF000009001200021CDE9010103916946204690
:103E0000FDF7F8FB06B010BD0010024000080048A6
:103E100010B5104C0E480C2120604FF41650606015
:103E20000020A060E060C4E90401A061206260623B
:103E30002046FFF725F808B1FCF760FE2168402016
:103E400008622068016841F02001016010BD000097
:103E500000800040C4030020124810B510490160E2
:103E60004FF48271416000214FF4E062C0E9021218
:103E70000222026101224261520282611022C0E9E3
:103E8000072107224162C0E90A1201634163FEF77C
:103E90004FFB002803D0BDE81040FCF72FBE10BD3B
:103EA000003C0040D40500203EB500240F4800949B
:103EB00001940D490294016040F21F31C0E90114E0
:103EC00040F6B8318461C160FEF7FAFC08B1FCF736
:103ED00015FE0094694605480294FEF7A3FC0028ED
:103EE00001D0FCF70BFE3EBD00100040380600205C
:103EF0003EB500240F48009401940D4902940160DE
:103F00004FF4FA51C0E9011428218461C160FEF721
:103F1000D7FC08B1FCF7F2FD00946946054802940D
:103F2000FEF780FC002801D0FCF7E8FD3EBD000054
:103F3000001400408406002010B5104C0E480C21DF
:103F400020604FF4165060600020A060E060C4E97B
:103F50000401A061E061206260622046FEF790FFEC
:103F600008B1FCF7CBFD2168402008622068016899
:103F700041F02001016010BD0038014048040020DC
:103F80000D4810B50B4901604FF4E131416000214B
:103F900081600C22C160C0E904128161C1610162CB
:103FA0004162FEF76DFF002803D0BDE81040FCF72A
:103FB000A5BD10BD00440040CC0400200D4810B544
:103FC0000B4901604FF4E1314160002181600C2216
:103FD000C160C0E904128161C16101624162FEF702
:103FE0004FFF002803D0BDE81040FCF787BD10BD8F
:103FF0000048004050050020FEE7000030B50E4CA0
:104000002078002816D00D4D61782878884211D18B
:10401000FCF728FD002160B9A1706878032808D159
:10402000A878102805D1A8796A7900EB0220044A03
:104030005080217030BD000040000020400C002066
:10404000D80B002006480021F722017042708170D1
:10405000044A084622F81010401C2028FADB70475A
:1040600040000020000C002001494870704700000B
:1040700040000020704700002DE9F041444C054607
:104080008846E0680026810728680DD0E16801F0C5
:104090000301814216D1A8B1E0686968C0F302103B
:1040A000401C88420ED120E0012804D0022805D00F
:1040B000032807D108E02168890701E02168490544
:1040C000002907DB01265FE02168890302D421680B
:1040D0004903F5E7E1686A686FF00F0321F07301A7
:1040E00003EB021211430143E160206820F080607D
:1040F0002060FDF793FB074605E000BFFDF78EFB50
:10410000C01B022837D820680001F7D4B8F1000F8F
:1041100018D0B8F1010F1ED0287D4FF07E41400825
:1041200001EB4060A96840EA01202169194A114069
:1041300008432061206840F080602060FDF76EFB3E
:1041400007461AE0A868E9680002090940EA414008
:104150002169114AEBE7288A1049400801EB4050D9
:10416000A96840EA012021690D4AE0E7FDF756FB06
:10417000C01B022801D9032606E020680001F5D5FE
:104180002069A969084320613046BDE8F08100003C
:1041900000100240FF80FFF9FF80FDFF0000E0FFFC
:1041A000FF809FFF2DE9F0413D4C06468846E068C0
:1041B0000025810730680DD0E16801F003018142DC
:1041C00016D1A8B1E0687168C0F30210401C8842A3
:1041D0000ED120E0012804D0022805D0032807D101
:1041E00008E02168890701E021684905002907DB0B
:1041F000012551E02168890302D421684903F5E7CC
:10420000E16872686FF00F0321F0730103EB021293
:1042100011430143E160206820F080502060FDF7E9
:10422000FDFA074605E000BFFDF7F8FAC01B0228BB
:1042300029D820688000F7D4B8F1000F15D0307C61
:104240004FF07E41400801EB4060B16840EA012038
:104250006169144A114008436061206840F0805051
:104260002060FDF7DBFA07460FE0B068F168000256
:10427000090940EA414061690B4AEBE7FDF7CEFAD4
:10428000C01B022801D9032506E020688000F5D56F
:1042900060697169084360612846BDE8F0810000EB
:1042A00000100240FF80FFF9FF80FDFFF8B51C4DB4
:1042B00006460024A86DC00002D5FDF795FB0DE071
:1042C000A86D40F08050A865A86D00F08050009067
:1042D000FDF78AFBA96D21F08051A965B0F5007F3B
:1042E00004D0802E07D94FF003040AE0802E08D9AD
:1042F000A02E01D804E001D1022402E0702E00D1EA
:1043000001240848016821F0070121430160006889
:1043100000F00700A04201D00120F8BD0020F8BD48
:104320000010024000200240F8B515460E460B462C
:104330000092044600224FF4C05100F019F888B9E9
:104340003346002280212046009500F085F848B9C8
:10435000334600224FF4C0612046009500F008F873
:10436000002804D0206E40F0200020660320F8BD15
:104370002DE9FE4F4FF0000A984617460E460446B8
:104380000C9D8DF804A0FDF749FA411BA8EB01052F
:10439000FDF744FA814620684FF4C06B0C30029060
:1043A0002A480068C0EBC00000EB8000000D6843A5
:1043B000009043E05E4506D12FB9029800788DF851
:1043C00004009DF80400B8F1FF3F37D0FDF726FA4E
:1043D000A0EB0900A84203D215B1009858B32BE016
:1043E0002068416821F0E00141606068B0F5827F9B
:1043F0000BD1A068B0F5004F02D0B0F5806F04D1AA
:104400002068016821F040010160A06AB0F5005FFA
:1044100009D12068016821F4005101602068016819
:1044200041F400510160012084F85D0084F85CA033
:10443000032000F00DB80025401E00902068806821
:104440003040B842B6D10020F3E700005000002011
:104450001EBCBDE8E08F00002DE9F8431E469146E2
:1044600088460446089DFDF7D9F9401B351AFDF72B
:10447000D5F9074625480068C0F3CB30684338E0DB
:10448000701C37D0FDF7CAF9C01BA84203D215B182
:10449000009860B32CE02068416821F0E0014160A1
:1044A0006068B0F5827F0BD1A068B0F5004F02D0F4
:1044B000B0F5806F04D12068016821F040010160EF
:1044C000A06AB0F5005F09D12068016821F40051AD
:1044D00001602068016841F400510160012084F806
:1044E0005D00002084F85C000320BDE8F88300250F
:1044F000401E00902068816838EA010004D0002145
:104500004945BDD10020F0E70121F9E75000002026
:1045100010B5502080F31188BFF34F8FBFF36F8F1A
:1045200002F01AFB18B104494FF0805008600020D7
:1045300080F3118810BD000004ED00E02DE9F0418A
:10454000B8B0442122A8FBF7F8FE142133A8FBF7EA
:10455000F4FE88216846FBF7F0FE03264FF4803016
:10456000CDE92260001225901020269014202CA95D
:104570002F900225012781E8E0004FF00708CDE9E0
:10458000308522A83295FDF747FD00240F20CDE9A4
:10459000346433903694042133A83794FDF704FC37
:1045A00044F227000F9400900E94A8021390400448
:1045B0001E900820CDE90270109401964005CDE9C7
:1045C0000650CDE904856846FDF716FA2802FDF786
:1045D000D7F938B0BDE8F0810D48016841F47001A9
:1045E00001600C48016841F0010101600021816017
:1045F0000268094B1A4002608214C260026822F409
:104600008022026081610249C003803908607047DE
:1046100088ED00E000100240FFFFF6EA0148FEF7D7
:104620000CBA0000E80600200148FEF706BA0000B8
:104630003806002038B5012412480094FEF7E4F94A
:1046400011481349047011480078401E087011A0E9
:1046500000F0C0FC182213491348FBF755FE13481D
:10466000006858B1694602F0CDF9009830B11049A0
:1046700020070860BFF34F8FBFF36F8F0148FEF72D
:10468000DCF938BD840600201F0000201D0000203A
:104690004000002074696D372072756E6E696E6718
:1046A0000A000000C00B0020400C00200000002089
:1046B00004ED00E02DE9F0470268264B264D274E19
:1046C000274F284C4FF0804A984209D0504507D0D8
:1046D000A84205D0B04203D0B84201D0A04204D1D4
:1046E00022F0700C4A6842EA0C02DFF87CC0DFF866
:1046F0007C80DFF87C9098420FD050450DD0A842C6
:104700000BD0B04209D0B84207D0A04205D06045D6
:1047100003D0404501D0484503D122F44075CA6812
:104720002A434D6922F080022A4302608A68C262ED
:104730000A688262984207D0A04205D0604503D043
:10474000404501D0484501D109690163012141611A
:10475000BDE8F087002C0140000400400008004044
:10476000000C004000340140004001400044014082
:104770000048014090F82410C90706D001684A6833
:10478000836A22F400321A434A6090F824108907A1
:1047900006D501684A68C36A22F480321A434A6027
:1047A00090F82410490706D501684A68036B22F483
:1047B00080221A434A6090F82410090706D5016840
:1047C0004A68436B22F400421A434A6090F824106E
:1047D000C90606D501688A68836B22F480521A43A1
:1047E0008A6090F82410890606D501688A68C36B30
:1047F00022F400521A438A6090F82410490611D519
:1048000001684A68036C22F480121A434A60016C02
:10481000B1F5801F06D101684A68436C22F4C002DA
:104820001A434A6090F82410090606D501684A68C0
:10483000806C22F4002202434A607047F8B50026DB
:104840000446C0F88060FCF7E9FF05462068006870
:104850006FF07E47000708D52B4600224FF4001169
:104860002046009700F0B4FA60B92068006840075D
:104870000AD52B4600224FF480012046009700F015
:10488000A7FA08B10320F8BD2020A067E0672666DC
:1048900084F874600020F8BD10B5806A0021A0F88B
:1048A0005A10A0F85210FEF7A0F910BD016851E8A7
:1048B000002F22F4907241E80023002BF6D101680A
:1048C000083151E8002F22F0010241E80023002BBB
:1048D000F5D1016E012908D1026852E8001F21F0CC
:1048E000100142E80013002BF6D12021C1670021FE
:1048F00001664166704710B5B0F85C20C36F01686F
:10490000222B04D0088B40F00800088310BD898C4E
:10491000436D11401980416D891C4165B0F85A10F2
:10492000491EA0F85A10B0F85A100029EED10268BA
:1049300052E8001F21F4907142E80013002BF6D1D9
:104940000168083151E8002F22F0010241E80023FC
:10495000002BF5D12021C16700214166026E012A9A
:1049600002D0FEF71BFC10BD0166026852E8001F72
:1049700021F0100142E80013002BF6D10168CA694A
:10498000D243D20601D410220A62B0F85810FEF7C2
:104990002AF910BD10B5B0F85C20C36F0168222B56
:1049A00004D0088B40F00800088310BD898C1140AA
:1049B000426D1170416D491C4165B0F85A10491E95
:1049C000A0F85A10B0F85A100029EED1026852E847
:1049D000001F21F4907142E80013002BF6D101680A
:1049E000083151E8002F22F0010241E80023002B9A
:1049F000F5D12021C16700214166026E012A02D053
:104A0000FEF7CCFB10BD0166026852E8001F21F0E2
:104A1000100142E80013002BF6D10168CA69D243A5
:104A2000D20601D410220A62B0F85810FEF7DBF863
:104A300010BD00002DE9F04104460168806822693C
:104A4000E3691043626900251A431043814F0A68E5
:104A5000814B1A4002430A6020684168E26821F4F1
:104A60004051114341602168A069B94201D0226AD6
:104A700010438A6822F4306202438A6077492268D0
:104A800077488A420DD1D0F8880010F0030006D094
:104A9000012866D0022854D0032851D163E00120B8
:104AA0004FE070498A420BD1D0F8880010F00C001A
:104AB00047D0042845D0082851D00C2840D152E0D6
:104AC00069498A420BD1D0F8880010F0300038D004
:104AD000102846D0202842D0302831D143E0634905
:104AE0008A420BD1D0F8880010F0C00029D04028AD
:104AF00037D0802833D0C02822D134E05C498A42A4
:104B00000ED1D0F8880010F440701AD0B0F5807F34
:104B100027D0B0F5007F22D0B0F5407F10D122E041
:104B2000BA420DD1D0F8880010F4406009D0B0F539
:104B3000806F16D0B0F5006F11D0B0F5406F12D075
:104B400010204C4900264FF40043BA422ED160B1E8
:104B500002280DD004280DD008286FD10EE00220C5
:104B6000EFE70420EDE70820EBE7FDF7DFF903E0CE
:104B70000B4603E0FDF7FEF9030060D0626802EB2C
:104B8000420098425AD8B3EB023F57D8190E1B0285
:104B90005008181871410023FBF782FB364AA0F534
:104BA000407191424AD82168C86048E0E2694FF6F6
:104BB000EF779A4227D1092840D2DFE800F00508B4
:104BC0000D3F213F3F3F0E00FDF7B0F901E0FDF73B
:104BD000BFF9030001D132E00B466068590001EBD8
:104BE0005001B1FBF0F0A0F11001B94226D84FF608
:104BF000F0710140C0F3420001432068C1601EE033
:104C0000FDF7B8F9E5E7092818D2DFE800F0050854
:104C10000D171D1717170E00FDF788F901E0FDF7B6
:104C200097F9030001D10AE00B46606803EB5001DD
:104C3000B1FBF0F0A0F11001B94208D90125666678
:104C40002846A666BDE8F081FDF794F9E9E780B251
:104C5000A9E7000000800040F369FFEF0038014041
:104C6000001002400044004000480040004C00405A
:104C7000005000400024F400FFFC0F0030B54165F7
:104C8000A0F85820A0F85A200022426681684FF40C
:104C90008055FF23A94204D1016971BB40F2FF1185
:104CA00031E07F2439B3B1F1805F29D0A0F85C20D6
:104CB000C0F880202221C1670168083151E8003F17
:104CC00043F0010341E80034002CF5D18168A9428A
:104CD00001D10169E9B11549416680F87420016983
:104CE000C9B1026852E8001F41F4907142E8001314
:104CF000002BF6D118E0016941B9A0F85C30D7E784
:104D0000016919B13F21A0F85C10D1E7A0F85C401F
:104D1000CEE70749E0E7026852E8001F41F02001B2
:104D200042E80013002BF6D1002030BD9549000861
:104D3000F7480008816F212910D1B0F8521071B1E5
:104D4000C16C02680988C1F308011185C16C891C16
:104D5000C164B0F85210491EA0F8521070470268A2
:104D600052E8001F21F0800142E80013002BF6D129
:104D7000026852E8001F41F0400142E80013002B96
:104D8000F6D17047816F21290ED1B0F8521061B170
:104D9000C16C026809781185C16C491CC164B0F806
:104DA0005210491EA0F852107047016851E8002FB8
:104DB00022F0800241E80023002BF6D1026852E87D
:104DC000001F41F0400142E80013002BF6D170476C
:104DD0002DE9F0479A4617460E4604464FF0000963
:104DE0004FF02008089D4AE0681C48D0FCF716FDEB
:104DF000A0EB0A00A8422AD84DB3206801684907F1
:104E00003DD5C069C043000539D421684FF4006026
:104E10000862206850E8001F21F4D07140E80012B9
:104E2000002AF6D12068083050E8001F21F0010167
:104E300040E80012002AF5D1C4F87880C4F87C80DC
:104E4000C4F8808084F874900320BDE8F08721685E
:104E500051E8000F20F4D07041E80002002AF6D19A
:104E60002068083050E8001F21F0010140E80012DE
:104E7000002AF5D1C4F87880C4F87C80E2E7206885
:104E8000C06936EA000004D00020B842ACD000204F
:104E9000DBE70120F9E70000F8B538480068C06991
:104EA00080061BD54FF47A73012269463348FEF71A
:104EB000CBF8334B3348591E5C781C709DF80020AA
:104EC0005A700D2C01D10A2A0CD00B78C25418202C
:104ED0005B1CB3FBF0F200FB123008702748FDF7B3
:104EE00085FEF8BD0C780519025500226A70032C66
:104EF0003ED304782B2C3BD14478562C38D185787E
:104F0000214C452D02D03D2D20D031E0C578522DC9
:104F10002ED10579532D2BD14579492D28D185796D
:104F20004F2D25D1C5794E2D22D1057A3D2D1FD18A
:104F3000457A6426303D15FB06F5C07A00EB80000B
:104F400005EB4000A0F5F070208011E0C57886796F
:104F5000303D05EBC50707EB0515407906EB8505E8
:104F600000EB80004FF6F05606EB40002844E0804E
:104F70000A701A705A709A70B0E700004804002056
:104F800015000020D0060020B40B00200A4808B508
:104F90000068C06980060AD54FF47A730122694619
:104FA0000548FEF751F805499DF8000008800448BF
:104FB000FDF71CFE08BD0000C40300202C000020EB
:104FC000CC0400200148FDF711BE00005005002070
:104FD000FEE700000FB4054B10B503A9044A029880
:104FE00000F0F8F810BC5DF814FB0000155A00083A
:104FF000C00000200907090E002804DB00F1E020B2
:1050000080F80014704700F00F0000F1E02080F8F5
:10501000141D704702E008C8121F08C1002AFAD107
:1050200070477047002001E001C1121F002AFBD128
:1050300070471CB52021CDE900100B46F0220A2153
:105040001E20FEF748FD1CBD2DE9FF5F82B0002148
:10505000DDE90430020DDDF840B0034318D044F61A
:105060001050A2F2FF3242431514119801281FD0AC
:10507000A5EB0B00401C5FEA000A4FF000064E4F04
:10508000DFF83891B046504615D5CAF1000413E058
:10509000119801244AA3012801D16FEA0B0102985B
:1050A000119AC0E90031C0E9024206B000F08EB8A2
:1050B000CBF10000DFE704460021404A491842EBEB
:1050C0000450CDE9001012E0E00707D032463B461D
:1050D00040464946FBF73CF98046894632463B4606
:1050E00010461946FBF734F906460F466410002CAB
:1050F000EAD1DDE90401DDE90023BAF1000F06DAA7
:10510000FBF726F942464B46FBF722F905E0FBF791
:1051100094F942464B46FBF790F904460E460022AE
:10512000284BFBF7C5FB03D84FF0FF30014607E0E3
:105130000022254B20463146FBF7F3FAFBF7A0FB94
:10514000102409E0002C0ADB0A220023FBF7A8F850
:10515000039B30321A55641E50EA0102F2D1641CDE
:10516000039AC4F111031444119A012A03D00122B5
:1051700008430DD10AE0084304D000204FF0110B82
:10518000119072E7A3EB0B056D1E0DE05B4504DD8E
:105190004FF0000205F1010504E003DA4FF00002D0
:1051A000A5F10105002AECD002981199C0E902315D
:1051B000C0E9004579E70000000014400000F03F1E
:1051C000300000000000F0430000E03F30BCBDE8CC
:1051D000C09F00002DE9FF4F95B09B4689460646CB
:1051E00000250FE2252877D100242746F84A01211F
:1051F000059400E0044316F8013F203B01FA03F058
:105200001042F7D130782A2811D06FF02F03307870
:10521000A0F13002092A16D8059A44F0020402EBE4
:10522000820203EB42021044761C0590EFE759F826
:10523000042B0592002A03DA504244F400540590EE
:1052400044F00204761C30782E2816D116F8010F8F
:1052500044F004042A280DD06FF02F023078A0F11A
:105260003003092B09D807EB870302EB4303C71868
:10527000761CF3E759F8047B761C30786C280FD045
:1052800006DC4C2817D068280DD06A2814D104E019
:10529000742810D07A280FD10DE044F400140AE0ED
:1052A00044F4801401E044F440147278824202D144
:1052B00004F58014761C761C307866280BD013DC3D
:1052C000582877D009DC002875D04528F6D0462824
:1052D000F4D047281AD19DE118E0632835D064281E
:1052E00079D0652812D195E1702873D008DC672841
:1052F000F1D069286FD06E280DD06F2806D1B5E0A7
:1053000073282CD0752875D0782874D05A461799F0
:1053100090476D1C75E1C4F30250022809D00328A0
:105320000DD0D9F8001004280DD00D6009F1040942
:1053300067E1D9F80010EA17C1E90052F6E7D9F899
:1053400000100D80F2E70D70F0E719F8041B8DF8DE
:10535000001000208DF80100EA46012003E059F812
:1053600004AB4FF0FF3061074FF0000102D40DE0B5
:1053700008F101018846B9420FDA8045F8DB1AF8D6
:1053800008100029F4D108E008F1010188468142A3
:10539000FADB1AF808100029F6D105985B46A0EB55
:1053A000080721463846179A00F097FA284400EB80
:1053B000080507E04DE029E10DE01AF8010B5A4617
:1053C00017999047B8F10108F7D25B462146384655
:1053D000179A13E142E00A220092C4F302524FF0FE
:1053E000000A022A08D059F804CB032A4FEAEC71CC
:1053F0000AD00DE029E02AE009F1070121F00702B7
:10540000F2E802C1914609E00FFA8CFC4FEAEC7118
:10541000042A03D14FFA8CFC4FEAEC71002907DA19
:105420000A460021DCF1000C61EB02012D2202E0B2
:10543000220504D52B228DF80420012203E0E20787
:1054400001D02022F7E7904659E00A2102E010221D
:105450000DE010214FF0000A00910BE010224FF0F8
:10546000000A44F004040827009203E008224FF0E9
:10547000000A0092C4F30252022A05D059F804CB64
:105480000021032A08D009E009F1070121F00702F1
:10549000F2E802C1914605E01FFA8CFC042A01D112
:1054A0000CF0FF0C4FF00008220728D5702806D01A
:1054B000009B83F0100353EA0A0305D00EE040225C
:1054C0008DF80420012208E05CEA010206D03022B7
:1054D0008DF804208DF8050002229046009B83F091
:1054E000080353EA0A030AD15CEA010201D1620708
:1054F00005D530228DF804204FF001087F1E582872
:1055000004D034A003900EA802900DE036A0F9E775
:1055100053466046009AFAF7C3FE84460398825CBD
:105520000298401E029002705CEA0100F0D10298DD
:1055300006A9081A00F1200A600702D524F4803475
:1055400000E00127574502DDA7EB0A0000E000203C
:1055500000EB0A01009005984144401A0590E003D1
:1055600006D45B462146179A059800F0B6F9054423
:10557000002706E001A85A46C05D179990476D1CA8
:105580007F1C4745F6DBE0030CD55B462146179AA6
:10559000059800F0A2F9054404E030205A46179916
:1055A00090476D1C0099481E00900029F5DC08E02A
:1055B000029802995A460078491C0291179990471F
:1055C0006D1CBAF10001AAF1010AF1DC65E10000ED
:1055D00009280100303132333435363738396162C9
:1055E000636465660000000030313233343536378D
:1055F00038394142434445460000000000F05BF961
:105600000544761C307800287FF4ECAD19B02846AC
:1056100000F04EB9620700D4062709F1070222F014
:10562000070CFCE80223E14603F000485FEA080C9F
:1056300002D00FF2702C0DE05FEA045C02D50FF28D
:10564000682C07E05FEAC47C02D00FF2602C01E016
:10565000AFF2700C4FF0FF3823F00043CDF850C08C
:1056600065280CD006DC452809D046281DD04728DF
:105670003DD13DE0662818D067287ED138E0002172
:10568000112F01DB112000E0781CCDE9000106A9F3
:105690000EA8FFF7D9FCDDE90F010E9A0391002156
:1056A000009207F1010A04914DE04FF0004000978D
:1056B000CDE9011006A90EA8FFF7C6FCDDE90F022F
:1056C00003920E9B11990022DDF80CA00093049226
:1056D00011B9791C00EB010AB7EB0A0004D4C0F140
:1056E000FF3007F1010A0490AAEB0700019044E0A3
:1056F000012F00DA01270021112F01DD112000E028
:105700003846CDE9000106A90EA8FFF79DFCDDE9AA
:105710000F010E9A0391002104910092BA462107CD
:105720000CD40399514500DA8A46BAF1010F05DD20
:10573000009AAAF10101515C302908D0B84202DA7E
:1057400010F1040F06DA0121CDE9011015E0AAF1EC
:105750000101E9E7002805DC049901440491AAEB62
:10576000000102E0411C514500DD8A460499401ABF
:10577000401C01904FF000400290200704D4019893
:10578000504501DBCDF8048000208DF84F000298D1
:105790000DF14F07B0F1004F25D02B200E9002984D
:1057A0004FF0020800280CDA404202902D200E90A3
:1057B00007E00A210298FAF7EBFE3031029007F871
:1057C000011DB8F10001A8F10108F2DC02980028DF
:1057D000EFD1791E0E980870307800F0200040F06C
:1057E000450007F8020D12A8C01B00F10708149825
:1057F000007800B1012000EB0A01019801EBE07193
:1058000005984144401A401E0590E00306D45B46CB
:105810002146179A059800F060F80544149800781E
:1058200018B15A46179990476D1CE00324D55B4682
:105830002146179A059800F050F805441CE004989A
:10584000002807DBDDE90301884203DD0098405CA6
:10585000179901E0179930205A469047049805F1AE
:105860000105401C04900198401E019004D12E2097
:105870005A46179990476D1CBAF10001AAF1010A26
:10588000DDDC05E017F8010B5A46179990476D1CAF
:10589000B8F10001A8F10108F4DC5B462146179A33
:1058A0000598ABE62D0000002B0000002000000052
:1058B00030BCBDE8C08F2DE9F041044600251E46EE
:1058C0001746880404D405E039462020B0476D1CF3
:1058D000641EF9D52846BDE8F0812DE9F041044663
:1058E00000251E469046C80301D5302700E020273A
:1058F000880404D505E041463846B0476D1C641E57
:10590000F9D52846BDE8F08110B504460420FCF71F
:105910007AFF0148046010BD2000002010B500206F
:105920000A4908700A4908700A4908804FF48061E2
:105930000948FAF702FD4FF480610848FAF7FDFCC8
:10594000012202490648FDF7FFFB10BDBC00002004
:10595000BD000020BE000020E81A0020E81E002044
:105960005005002010B504460448844205D10120AA
:10597000034908700148FDF747F810BD38060020BC
:10598000BD00002010B504461448844225D11448B7
:105990000078E8B913480088B0F5806F15DA002068
:1059A000114909684862801E0F49096808610E485C
:1059B000FCF7EAFF0D4801780A4802880088401C7D
:1059C000084B18800A48815402E0012004490870FD
:1059D000012206490148FDF7B7FB10BD5005002024
:1059E000BD000020BE00002038060020BC000020C2
:1059F000E81A0020064910B54FF47840088000F0FE
:105A000097FCFDF75DFDBDE81040012000F0DCBC17
:105A10001800002013B54FF6FF73012269460248B3
:105A2000FDF794FC00981CBDCC04002010B50DA01F
:105A3000FFF7D0FAFDF7DCFE00F044FD0E4C2068C5
:105A400000F05EFE606800F05BFEA06800F058FEAB
:105A5000E06800F0FFFD09A0FFF7BCFABDE81040C8
:105A600000F050BD696E697420737461727465646E
:105A7000212E2E2E0D0A000004000020696E69748C
:105A80002064656C65746564212E2E2E0D0A00005D
:105A9000FFF7B0FF42F21074204600F0E3F8FBE796
:105AA000F0B587B014216846FAF747FC194CE06C52
:105AB00040F00200E064E06C012600F00200059076
:105AC000602000900025CDE90165134F69463846F6
:105AD0000395FBF78FFD012260213846FBF799FE05
